:020000040001F9
:10800000786000203D810100578101005981010005
:108010000000000000000000000000000000000060
:108020000000000000000000000000005B81010073
:1080300000000000000000005D8101005F81010080
:1080400061810100618101006181010065C8010059
:1080500099C8010000000000B1A701003D8901009E
:108060006181010061810100618101006181010084
:108070006181010061810100618101006181010074
:10808000F9DB010061C10100618101006181010032
:108090003DCA010045CA01005DCA010061810100BD
:1080A000618101006181010000000000000000000A
:1080B00000000000000000000000000000000000C0
:1080C0000348854600F0FCFB00480047215C0200A5
:1080D00078600020401E00BF00BF00BF00BF00BF8F
:1080E00000BF00BF00BF00BF00BF00BF00BFF1D195
:1080F00070470000401E00BF00BF00BF00BF00BFB0
:1081000000BF00BF00BF00BF00BF00BF00BFF1D174
:1081100070470000401E00BF00BF00BF00BF00BF8F
:1081200000BF00BF00BF00BF00BF00BF00BFF1D154
:10813000704700007858002078600020032109482B
:1081400002680A430260084802680A43026007485E
:10815000804707480047FEE7FEE7FEE7FEE7FEE749
:10816000FEE700002405004054050040CDCD01008D
:10817000C180010030B50B460146002020220124B9
:1081800009E00D46D5409D4205D31D469540491B4B
:108190002546954040191546521E002DF1DC30BD94
:1081A00070B500242546002801DA01244042002948
:1081B00001DA01254942FFF7DDFFAC4200D0404221
:1081C000002C00D0494270BD10B5431A934209D229
:1081D0008318881803E0401E01785B1E1970521E38
:1081E000F9D210BD03460B439B0703D009E008C931
:1081F000121F08C0042AFAD203E00B780370401C57
:10820000491C521EF9D210BDD2B201E00270401CCE
:10821000491EFBD270470022F6E710B513460A4606
:1082200004461946FFF7F0FF204610BD421C0178B6
:10823000401C0029FBD1801A704710B5002200E0D5
:10824000521C835C8C5CA34201D1002BF8D1D8B2C4
:10825000E1B2401A10BD30B504460020034600E0EC
:108260005B1C934203D2E05CCD5C401BF8D030BD78
:1082700030B505460020034600E05B1C934205D262
:10828000EC5CC85C201A01D1002CF6D130BD000096
:10829000F0B507460846584087B0C00F0490480024
:1082A0000E46590040084908BC1A884105D2384694
:1082B00031461E4617460B460246580040081043FA
:1082C0004CD0300D039040055900400D490D0590EC
:1082D000401A0290402872DA18030121000B0905A8
:1082E0000843019004980092002805D00199524259
:1082F0000020884100920190029840210A1A0199B9
:10830000009800F0F9F905460C466B4607CB00F0E3
:1083100014FAC0197141039A0E0D0023D717564065
:108320001A467A40164344D0049A002A2DD0029A65
:10833000012A039A15DC1205C01A9141012636055F
:10834000001C7141D20F059ED20700930192029644
:108350002A46234600F011FA07B0F0BD38463146F0
:10836000FAE71605224A0F46B218C01AB741012192
:108370000905001C4F4100187F411146181879412A
:10838000E20F10436D19644113E0E2076D081543D5
:108390006408C2071443039A01261205C01A9141CA
:1083A0003605001C7141CE07400830434908C0180B
:1083B00051412A46234600F0D3F9CDE7FFE7049860
:1083C00001224000C117121A00238B410498314644
:1083D000C417381AA141EEE730B40124E407634022
:1083E00030BC55E730B40124E407614030BC4FE7AE
:1083F0000000E0FFF0B51FB488B00B990998002485
:1084000048400999C00F490049080991C0070B99D4
:108410000090490049080B9109990898A64608431D
:108420001CD00B990A98084318D0099801244000E1
:10843000420D4800410D099824050003000B20431C
:1084400009900B980003000B20430B9050181C4917
:108450004018002201901446104605E00020014615
:108460000DB0F0BD032801DA034600E003239C466B
:10847000C11A0AAE0AE05F0008ADED5B4F00F75B82
:108480007D430027AA187C41491C5B1E6145F2DD33
:10849000410004AB5A522104120C0A43240C401C24
:1084A0000828DFDB01980290009970460191009046
:1084B000059B049A0799069800F05FF9D0E7000041
:1084C0000DFCFFFFF0B50C465C4085B0E40FE407FF
:1084D00003944C000026640859009446490802465B
:1084E0000296224321D062460A431ED06200570DF5
:1084F0004A000E032303550D012402462C4924058E
:10850000781B1B0B360B4018234326436146009013
:108510001C46501AB44103D30098401C009002E05E
:10852000921800985B41002803DA0020014605B04C
:10853000F0BD0020012109050746864611E064468A
:108540001D46141BB54106D36546521BB341744604
:1085500007430C43A646CD07400849082843921814
:108560005B4105460D43EAD11046184313D06046DF
:10857000194650407140084306D06046101AB34176
:1085800006D20122002306E000220123DB0702E0DD
:108590000122D2435310009874460105381C6141F2
:1085A000029C039D0019694100F0DAF8BFE7000062
:1085B000FD03000070B54B005B0803430BD04B007C
:1085C0005C0D002633466542B341D417AD1AA34172
:1085D00002DB0020014670BD12053018514170BD0C
:1085E0000EB5C217C10F5040CA0740180021054BF5
:1085F0000293019200910A460B4600F0BEF803B0C8
:1086000000BD0000330400000EB5054902910021B1
:1086100000910A460B46019100F0AFF803B000BD8F
:108620003304000070B5CD0F4A0009030123090B84
:108630001B0519430B4BED070024520D9A4201DA3A
:10864000002070BD074B34339A4203DC9A1A00F0C5
:1086500063F802E00449511888402C43F1D04042AD
:1086600070BD0000FF030000CDFBFFFF4A000903BF
:108670000123090B1B051943094B10B5520D9A42F2
:1086800001DA002010BD064B34339A4203DC9A1AFB
:1086900000F042F810BD03495118884010BD000099
:1086A000FF030000CDFBFFFF10B5002904DB012410
:1086B000E40740428C412146002B04DB1C46012389
:1086C000DB075242A3418B4200D1824210BD000021
:1086D00010B5002904DB0124E40740428C41214607
:1086E000002B04DB1C460123DB075242A3419942C5
:1086F00000D1904210BD000010B5202A04DB0146D5
:10870000203A9140002010BD914020239C1A03463E
:10871000E3401943904010BD10B5202A04DB084601
:10872000203AD040002110BD0B46D340D040202439
:10873000A21A91400843194610BD10B5202A06DB45
:10874000CB170846203A1041C1170B4306E00B46F1
:108750001341D0402024A21A91400843194610BD6D
:1087600010B5002B08DA0024401C614192185B41CF
:108770001A4301D14008400010BDF0B51FB482B0CB
:1087800005460C0003D0084605F05CFB02E005F04E
:1087900059FB20300246009021462846FFF7ACFFE7
:1087A000049B059A04460F4618431143084314D00E
:1087B000184610431BD0009840210A1A1846059904
:1087C000FFF7AAFF05460E46009A05990498FFF7A1
:1087D00093FF084305D0012004E02046394607B046
:1087E000F0BD0020C11705430E432C4337430099C9
:1087F0000E986305401A7905E40A00220C43FD0A2D
:108800000A3002D500200146E9E701051019694147
:108810000C9C0D9D00196941FFF7A2FFDFE7FEB533
:1088200000231A461B1A8A4103DB0020014603B0CD
:10883000F0BD4A000D0301212D0B0905520D0D431A
:10884000D10702D100186D41521E5110FF31FF3186
:108850000131002704463E46384600970191024602
:10886000012100200905FFF757FFC3197141F818CE
:10887000324684468E464A4161462846611A9041F6
:1088800004D36046241A954176461F462419009861
:108890006D41401C00903428E1DDF91930467041EB
:1088A000091BA84103D20022D243134601E0002253
:1088B000134601980105381C7141FFF751FFB6E7D7
:1088C000064C0125064E05E0E36807CC2B430C3C23
:1088D00098471034B442F7D3FFF7F6FB00A202002A
:1088E00020A2020070B58C180578401C6B075B0F46
:1088F00001D10378401C2A1106D10278401C03E004
:1089000006780E70401C491C5B1EF9D12B0705D45C
:108910000023521E0DD40B70491CFAE70378401C4B
:10892000CB1A921C03E01D780D70491C5B1C521E73
:10893000F9D5A142D8D3002070BD000004480268D8
:108940000021002A03D001220160024842607047E2
:108950000071004000700040F0B50E4601468DB039
:10896000FF310746E531154668460C9100F05EF987
:108970001C46103C2AD4314608A800F057F908A834
:108980000FC8079304AB07C304A9384600F066F884
:1089900000990498103C484000BA28600199059855
:1089A0001036484000BA686002990698484000BAFC
:1089B000A86003990798484000BAE86008A80FC863
:1089C00003936B4607C31035002CD4DA08A90C9822
:1089D00000F02CF90DB0F0BDF0B505460088143557
:1089E000800032E02C681A4B1A4E6100314022465A
:1089F000E609DF091A403E40921B174EFF43324002
:108A000051400E464A001E403A40F709F61B124FED
:108A10003E40724017461F400E4B56001E40FB0959
:108A2000FB1A0D4F3B405E400B4674405340734071
:108A300061401826F141594062401023DA414A4012
:108A40000821CC41544010C5401E0428CADCF0BDAA
:108A500080808080FEFEFEFE1B1B1B1BF0B50E46B9
:108A600095B00188079109010F180420143781007F
:108A7000891980393F1FCA6F3B685A40CA67401E38
:108A8000F5D18FE00423481E1090D81C8007000FFA
:108A90003058010E47484068425C991C8907090F0D
:108AA00071580902090E415C0491591C8907090F8C
:108AB000715A0904090E455C9907090F715C445C01
:108AC0001099059888424FDA04991046484003905F
:108AD00000F030F90499069069400846119100F0C1
:108AE00029F904902846604000F024F908902046B7
:108AF000504000F01FF9139004990698484000F088
:108B000019F90B9004990898484000F013F90B9953
:108B10000A90484000F00EF9844611990B98614084
:108B200041406046414006986A4041400A98624090
:108B300042406046424004984240039844400B98AB
:108B400044406046444008984440039845400A9891
:108B500045406046454013984540080611040843C7
:108B600021020843284306E004991006090408433B
:108B70002902084320439A000CA951188039C8677C
:108B80005B1E82D104200CAA81008B18803B3F1F02
:108B9000DB6F3C68891963408039CB67401EF3D195
:108BA0000598401C07990590884200DA6AE715B0DD
:108BB000F0BD000000400020F0B5C1B002F0FCFFA5
:108BC000194BC11DF93103C3002201216C46FF2757
:108BD000CE091C37A1544D007E4375406940521C9C
:108BE000FF2AF4D9632500230570FF27F91A615C79
:108BF0000A020A4311095609714096097140D609C3
:108C000071405140E25C69405B1C8154FF2BEDD305
:108C1000054900200A684968135CC854401CFF28B5
:108C2000FAD941B0F0BD0000004000200A6812BA35
:108C300002604A6812BA42608A6812BA8260C968E1
:108C400009BAC16070470000FEB505460C463748BA
:108C5000FF2100901E46F5312846FFF7DCFA002E72
:108C600011D0012E61D10E202880214628460826E9
:108C700010311430FFF7DAFF2146281DFFF7D6FF29
:108C80006E80374644E00A2028800426F4E7B800C6
:108C900001902C5831463846FFF782FA002918D146
:108CA0002348E2B20068825C13022204120E825C46
:108CB00012041A4323021B0EC35C1B061343220E2D
:108CC000805C009A18431278140644400098401CB7
:108CD0000090082E13D1042911D1154822040068F0
:108CE000120EE1B2825C415C12020A432102090EBB
:108CF000415C09041143220E805C04060C43B81B3E
:108D00008000401941680198614040197F1C416012
:108D100028888000001DB842B9DC0020FF350146DC
:108D2000E135401C29711028FBDBFEBDDA7B020017
:108D30000040002001064000002901DA1B214840C4
:108D4000C0B27047002800DA4042704710B50023D7
:108D50001A4606E0C40701D05B1CDBB24008521C77
:108D6000D2B28A42F6D3184610BD10B50DF09AF86B
:108D700010BD10B5FFF734FC0EF06EF8FFF752FC93
:108D800010BD00000848017B022907D0017D1E2983
:108D900002D8C07C782804D90020704700210175D2
:108DA000C174012070470000B044002004490A7BD0
:108DB000022A04D00A7D1E2A01D8101808757047AF
:108DC000B044002010B501F091FF002810D101F04F
:108DD0009BFF00280CD100F045F80D49002802D077
:108DE0000020488104E04889FF212D31884201D2CA
:108DF000002010BD00F06CF9002802D0072000F020
:108E00001BF901F069FD03F0FDFA012010BD00001F
:108E1000B044002007490A7B022A09D00A46A03A3A
:108E2000127E002A04D1CA7C782A01D81018C8748E
:108E300070470000B0440020094800B500220146F8
:108E40004273C0318A804A8100F00CF8002804D0B7
:108E5000022008730A75CA7400BD0A7300BD0000C1
:108E6000F043002004480069C00CC007C00F01D0C7
:108E700000207047012070470005005000B5FFF743
:108E8000F1FF002803D10448407B052801D90020C8
:108E900000BD012000BD0000F0430020F8B5194CD2
:108EA000274600F0A9FA0146607B002819D0012866
:108EB0001AD0022818D10D4607F00CFE2074617CF0
:108EC0002646C03E002914D00020607401F00EFF39
:108ED000002802D0B87C002807D00020B874207C7D
:108EE0000AE0204605F09AFAF8BD207B022805D05A
:108EF00005E0717B884202D27073F6E7256000209E
:108F00006073F8BDB044002010B501F0ABFD102037
:108F10000CF0A2FF0349C880012048740220487366
:108F200010BD0000B044002000B50246FFF79AFFD4
:108F3000002809D005498888801880B2E1225201B2
:108F40008880904200D98A8000BD0000B044002093
:108F500010B51F4B002286B000282FD016292DD126
:108F60004178E1290BD0E22904D0E32904D0E42997
:108F700004D023E0012202E0022200E003221424B4
:108F800069460C820024D100009401940294C9180F
:108F900003948A8B69460A8001228A708C8004A916
:108FA000801C02910390988A6946A6DF08494031E7
:108FB000002806D0074A904200D10C77002006B066
:108FC00010BD087F012801D9401E08770120F6E76F
:108FD000384700200430000070B5FEB015460E463C
:108FE0000446FFF7E9FD00231A4621466846FFF7CD
:108FF0002BFE6846FFF7F0FC40232A4631466846C0
:10900000FFF7AAFC7EB070BD30B50C468DB015469A
:10901000014610226846FFF7D7F81022214604A81F
:10902000FFF7D2F868464DDF1022284608A9FFF75F
:10903000CBF80DB030BD000010B5074C1321A08A4D
:1090400076DF002803D005A2C4210BF00AF8022025
:109050004034607710BD0000384700202E2E5C732E
:109060006F757263655C62746C652E63000000004E
:1090700070B50646FFF7F6FE00250E4C002809D114
:10908000FFF7FCFE002805D001F030FE002801D0DB
:10909000657770BD084880790028FAD0002E01D08D
:1090A000A57701E00120A07701F00EFD0520607793
:1090B00070BD000078470020F04300201CB5044636
:1090C000684666DF68468088207001201CBD00006D
:1090D0000348407F042801D00020704701207047DA
:1090E000784700200348407F002801D000207047C7
:1090F000012070477847002070B52E4A038811463A
:1091000000254031172B1AD01ADC012B28D0102B48
:109110002BD0112B13D1681E908201201446487762
:1091200009F0DAFA00F04AF802F08AFBA07D800725
:1091300005D402F0D9FC002801D003F03DFE70BD3B
:10914000192B27D0392B03D0502B20D0552BF6D1FB
:10915000FFF7BEFF0028F2D00520FFF76DFF70BDBE
:109160000A7F007A1018087770BD808890820420EA
:1091700014460E46487700F03FF92060F57700F07E
:109180003BF90D49086020465C3062DF70BD08F095
:1091900027FE70BD80790028FBD1487F0528F8D1D3
:1091A000887F022803D00020FFF762FF70BD4D7753
:1091B00070BD000038470020F04300200648002121
:1091C000017641768181C18181760448C179490661
:1091D000490EC1717047000038470020F04300205D
:1091E00038B51E4C09F078FA20465C3062DF012168
:1091F000684681701F21C9430180224612326946A8
:109200000120A0DF002827D1012115480BF074F8B8
:1092100013480221401C0BF06FF811480321801CF9
:109220000BF06AF80E480421C01C0BF065F80C48DE
:109230000521001D0BF060F809480621401D0BF0C8
:109240005BF807480721801D0BF056F804480821F9
:10925000C01D0BF051F8002038BD00003847002039
:10926000E1FF000010B5104804464034617F0B0058
:1092700004F0FFFD050F040F0F120F00C08A002835
:1092800001D006F067F9A07F002803D00020FFF787
:10929000EFFE10BD0120FAE701F028FD0028F8D00C
:1092A00000F004F810BD00003847002070B500F051
:1092B000A3F80546344C02F017FC002807D03349C8
:1092C00020684018A8425DD203F076FD5AE0A07EE7
:1092D0000A2802D901F092FC54E02D492068401878
:1092E000A84204D2FFF76AFF01F088FC04E0A089DD
:1092F000002801D100F05CF82648C079000641D56D
:10930000E089A189884205D20120C00300F04AFA11
:1093100000280DD1607E217E884225D2208A012638
:109320003603FF2806D8304600F072F9002801D035
:10933000012070BD607E401CC0B26076217E8842F4
:109340000DD2002020820122052113A000F05AFF37
:10935000A060002808D0304600F05AF9E8E7012262
:1093600005210DA000F04EFF7D216068C900401866
:10937000A84207D201F042FC00F0FEF86560A07E32
:10938000401CA076002070BD3847002030750000DA
:10939000204E0000F043002065706F6368000000FD
:1093A0000248007F002800D0012070477847002045
:1093B00070B50D4D0120C002A8810024EC8105216B
:1093C0000AA000F03FFD0006000E28766C7606D05D
:1093D0000022052105A000F015FFA8602C82054899
:1093E0000471447170BD00003847002065706F63E0
:1093F00068000000B045002010B503F045FB10BD2B
:1094000070B5214A017813469C3B090219814478C2
:109410001E4D091989B200241981A9420DD1146089
:1094200054608178C01C9972002903D0012903D1AE
:109430000AF0A8FB00F072F870BD144D6D1CA94233
:109440000FD114605460C178090219600279114388
:1094500009021960427911431960817999720022D9
:109460000DE00A4A921C914202D0521C9142E3D173
:10947000C1780A0201791143427909020A43811D28
:10948000184609F065FF70BD6C460020E5FF00003E
:10949000F8B520480090051D80792F46401CA87023
:1094A000FF20E870E2202871A878687180370720D3
:1094B00078620020A871E871072129722E46A03633
:1094C000F8617073B8622C4630700B221934025563
:1094D00001216A702970009801700F48827D0A5539
:1094E000C27D03213173022002550B49E01C042286
:1094F0000C31FEF769FE0720307328461022214602
:109500000930FEF761FE10207073F86100980221A7
:109510000170F8BDF444002010470020F8B5154E46
:1095200010213446FF340934A0782746401CA0702F
:10953000FF20AD308151FF20E070E1202071A03785
:109540002546012219353A7300214955F11D681C41
:109550000922261FFEF738FE0A223A7300206070A7
:1095600001202070022030702946601DFEF72CFE7D
:10957000F8BD0000F043002070B5224C2546FF35B1
:10958000C1352879FF34CB34002839D1FF20207031
:10959000E12060701620A0701A488030C169090E61
:1095A000E170C169090C2171818B090A6171007F29
:1095B0001449A071CA6B086C8018020EE271020C8B
:1095C0002272020A6272A0720020E0722073886C1C
:1095D0000009020A6273A073486C0009010AE17372
:1095E00020740948C079607403F098FCA07407489F
:1095F0000A21C07B401DFEF7BDFDE07401202871EB
:1096000070BD0000F0430020D04A0020104C002024
:10961000F0B593B0064601A8009005A80B9001A8EC
:109620000A905E4C05A80D902079002802D160793F
:10963000002802D0012013B0F0BD0D22584892013D
:10964000851803221202A17980180E90002923D0D8
:1096500000271CE0288B00010C90B0421AD20E9813
:109660000422016D0C98081801A900F087FE0198EA
:1096700004224000400801900E98016D0C980818D3
:1096800001A900F0D5FE288B401C28837F1C20896F
:10969000B842DFD80020A071288B0701B74201D360
:1096A0000020C8E70120208116E00E981022006DEE
:1096B0000099C01900F062FE00980078FF2806D0DB
:1096C0000198002803DA40004008019006E0288B4A
:1096D000401C80B228830701B742E6D3B7424CD280
:1096E000288B050146E00E981022006D0B99401959
:1096F00000F044FE0B980078FF283ED00598002823
:109700003BDA4000400801990590884235D90D9810
:10971000017A0A98007A81422FD10D98417A0A98ED
:10972000407A814229D10D98817A0A98807A8142C3
:1097300023D10D98C17A0A98C07A81421DD10D9823
:10974000017B0A98007B814217D10D98C1880A9845
:10975000C088814211D10D98417B0A98407B81429B
:109760000BD10D98817B0A98807B814205D120899D
:10977000401C20811035B542B5D32389012B01D976
:10978000092201E00023082220460A300A9906F047
:1097900003FE0120207160714CE70000B0450020FD
:1097A000F0430020F0B591B0064601A8079008A844
:1097B0000C9001A80690574C08A80D90207900281D
:1097C00002D16079002802D0012011B0F0BDA0794B
:1097D000514D00281ED0002717E0E88A0001B04252
:1097E00016D204221303C01801A9009000F07EFDD8
:1097F0000198042240004008019001A9009800F05F
:10980000DBFDE88A401CE8827F1C2089B842E4D84E
:109810000020A071E88A0701B74201D30020D4E7F5
:109820000120208115E0102290023818079900F0DD
:109830005DFD07980078FF2806D00198002803DA1C
:1098400040004008019006E0E88A401C80B2E882AF
:109850000701B742E7D3B7424BD2E88A050145E09A
:109860001022900228180C9900F040FD0C98007806
:10987000FF283ED0089800283BDA400040080199B4
:109880000890884235D90D98017A0698007A81426D
:109890002FD10D98417A0698407A814229D10D98AE
:1098A000817A0698807A814223D10D98C17A0698F0
:1098B000C07A81421DD10D98017B0698007B8142C0
:1098C00017D10D98C1880698C088814211D10D9892
:1098D000417B0698407B81420BD10D98817B069895
:1098E000807B814205D12089401C20811035B54202
:1098F000B6D32389012B01D9092201E000230822D4
:1099000020460A30069906F047FD0120207160715B
:109910005AE70000B04500203047002010B5002471
:1099200005F078F8002803D0641CE4B2052CF7D3C6
:1099300010BD0000F0B5044610460022084E0AE0B3
:109940002578070A7D406D00755B00024540521C7A
:10995000A8B292B2641C8A42F2D35840F0BD000013
:10996000347E020010B50C4609F038FD0448017A37
:1099700002464900103254520121417210BD0000CC
:109980005841002003481321C08A8903C001081AE6
:10999000704700003841002070470000F8B52B4C9C
:1099A000A0792346203B85011E468446E179DA8A68
:1099B00030360DE04800305A254FB84207D14010EC
:1099C0004F00F0536818521C80B2DA8230E0491C14
:1099D0004029EFD31320C001824235D0607A00289D
:1099E00004D01A496046103100F00EFD174E0027D2
:1099F000203E26E0A079884226D2401C1349C0B2FE
:109A00004035A071ADB2103100F09EFC104800212D
:109A10000E4A4B001032D25A82420ED10B4A0D48E8
:109A20004B001032D0526818F28A80B2521CF28277
:109A3000491CE17101216172F8BD491C4029E7D33D
:109A40007F1CF168B942D5D80020F8BD58410020EC
:109A5000FF7F0000FF3F000010B509F0BFFC034886
:109A60000249007A40001031085A10BD58410020C8
:109A7000F0B51A4CA1B0A18BA068FEF77BFB0025C6
:109A80002646E0823036164F17E06946284600F039
:109A90005BFC1248802269463030FEF795FB0020BF
:109AA0004100715AB94202D0E18A491CE182401C4E
:109AB00080B24028F4D36D1CADB2E068A842E4D86F
:109AC000064D002420352946AC711031204600F0A7
:109AD0003BFCEC716C7221B0F0BD000038410020FD
:109AE000FF7F0000F0B5C1B0354C6946002000F0A2
:109AF00015FC802020836D4620A9032000F00EFC79
:109B00003FA8023001F0C2F82E49002788424ED10A
:109B10002846363001F0BFF82B490002884246D172
:109B200002A8033001F0B2F8218B88423FD105A88A
:109B3000023001F0ABF8E06068462646007C203633
:109B40003073012833D16846407BA08304A80130DC
:109B500001F09CF8E08304A8033001F097F820841A
:109B600003A8023001F092F860840120218B0004E8
:109B7000FEF700FB0546208CA84218D3A18B401BA2
:109B8000FEF7F8FAA0840220B072A560608C206015
:109B9000E08B00280CD068086060A08C218B40000E
:109BA000401E0818FEF7E6FAE168884202D9002054
:109BB00041B0F0BD0020C0432061A7820120F7E73B
:109BC0003841002055AA00000046415410B530210C
:109BD0000248FEF720FB00F003F810BD38410020DA
:109BE000F0B55F4CA7B0204620300221269022908D
:109BF00081726D4680212846FEF70DFB2946012023
:109C000000F0F3FB2946022000F0EFFB80262683BC
:109C100066830120A0831320C00120840420608477
:109C20000002E08341100F20C001A0841E20E060EC
:109C300022980127077304202060A16080016060E2
:109C4000F022802128462592FEF7E5FA0B2245A155
:109C50002846FEF7B9FA6946CE72002008734F73A2
:109C600004228A73C8730F7448748A74CE740922EC
:109C70000A75259A4A753F220A764876FF228A7627
:109C8000C876087748778877C8770BF0F3FD08A97E
:109C9000C871020A0A72020C4A72000E8872A08908
:109CA00069468875000AC87508A90E71292088714F
:109CB000284613222EA12B30FEF786FA29460020D3
:109CC00000F093FB218B2846FEF7A5FA552018A932
:109CD0008877AA20C8772946032000F086FB002059
:109CE0007F26249035E0FF2280212846FEF78CFA5B
:109CF00001202E54801C8028FBD3FF212598C943C6
:109D0000014329701F4A010A11436970010C1212A4
:109D10001143A970000EFF210843E8702946002076
:109D200000F072FB01270EE0FF2280212846FEF79B
:109D30006BFA01202E54801C8028FBD3294638461C
:109D400000F062FB7F1CE068B842EDD82498401C0C
:109D500024902698017B24988142C4D827B0F0BD76
:109D600038410020EBFE904D53444F53352E3000C8
:109D70004E4F204E414D452020202046415420206A
:109D800020202000FFFFFF0010B50548417A002980
:109D900004D003498079103100F036FB10BD00007B
:109DA00058410020F1B50026A8B0354600F0AEF8C5
:109DB00002F078F9074600212898002F016001D0B1
:109DC000002415E0002029B0F0BD20A9204602F0B3
:109DD00023F900280AD0761CB6B26946204602F064
:109DE0002FF96846FEF722FA45190835641CA4B21B
:109DF000BC42EAD3289805603046E4E770B5A8B0C5
:109E0000064600F083F802F04DF9050018D0002452
:109E100014E020A9204602F0FFF800280CD0694683
:109E2000204602F00DF931466846FEF706FA002892
:109E300002D1204602F0D2F8641CA4B2AC42E8D3AE
:109E400028B070BDF3B5A9B0299800260F460028A8
:109E500024D0002F22D000F059F802F023F9050099
:109E60001CD001A80024009016E0A0B221A902F0A5
:109E7000D3F800280FD0A0B201A902F0E1F8002029
:109E800006E000990A5C2999095C8A4203D1401CCA
:109E9000B842F6D3761C641CAC42E6D330462BB0F5
:109EA000F0BD000010B504002DD0E07C00282AD1C0
:109EB000A07C002802D0204609F070FFE08902F063
:109EC000CDF8E2890146104602F01CF9218AE089AA
:109ED00002F000F90C48008D02040B482030817A12
:109EE00011430A02C17AE089114302F0FFF8E089C8
:109EF000216802F039F8FFF747FF02F00FF9002060
:109F0000207502F0B5F810BD7044002010B505486A
:109F1000007D002805D00348FFF7C4FF002001F0B2
:109F200017FE10BDE8410020002803D0006800287B
:109F300000D0012070470000F0B5CDB00D4624A937
:109F4000019104A900910146802204A8FEF73CF982
:109F5000FFF7DCFF334C0026E574012D26D0FFF718
:109F600087FDFFF70FFD0521C90288424DD3FFF79A
:109F700015FD050049D0FFF711FD69460881020073
:109F800045D02946009801F0FBFF411C41D0711ECD
:109F90002182A6742081694609896181A181266098
:109FA000E081012020751F484DB0F0BD02F07AF825
:109FB00007002AD0002510E0A8B244A902F02CF82E
:109FC000002809D0A8B2019902F03AF80099019846
:109FD000FEF733F9002802D06D1CBD42ECD3BD4220
:109FE00013D2A8B2E08103AA02A902F061F820828C
:109FF0008020A074E0892081684600896081A0816A
:10A000000398206060602675CDE70020CCE72846E5
:10A0100004E02846FFF7C0FC68460089FFF7BCFC57
:10A02000F3E70000E8410020F8B516460F460500AA
:10A0300007D02868B04200D2C6B2A87C802802D0DF
:10A0400004E00020F8BD284608F04EFBA87C1C491F
:10A050008219802A09D2411832463846FEF7B4F8F0
:10A06000A87C34468019A8741EE08022121AD4B24B
:10A07000411822463846FEF7A7F8381900901BE031
:10A08000301BC7B2802F00D380273A460C49009876
:10A09000FEF79AF8E019C4B20098C0190090802F1A
:10A0A0000AD0AF74B442EBD32868A04200D2C4B245
:10A0B000001B28602046F8BD284608F015FBF1E794
:10A0C00080420020F8B516460F46050014D02A8AB3
:10A0D0003146384602F020FD2882A87C1F498219AB
:10A0E000802A0BD2401832463946FEF76DF8A87C1C
:10A0F00034468019A87427E00020F8BD8022121A87
:10A10000D4B2401822463946FEF75EF8381900905E
:10A110008020A874284609F041FE002812D113E0DF
:10A12000301BC7B2802F00D380273A460B480099D6
:10A13000FEF74AF8E019C4B20098C0190090802FC9
:10A1400004D0AF74B442EBD32046F8BD8020A8748D
:10A15000284609F023FE0028F4D1F5E7004200204C
:10A16000F7B5A8B00E460024FFF7D0FE01F09AFF25
:10A170000746002542E06946284601F04DFF0028C9
:10A180003AD02898844235D1019808AF010E2A9818
:10A19000315401982A9C000C641C30550198641CB1
:10A1A000000A3055641C0198305568460089641CCB
:10A1B000000A305568460089641C305539462846E7
:10A1C000641C01F03DFF3846FEF730F8401C85B2B4
:10A1D0007F20001B80B2854200D9054600207855BB
:10A1E0003555641C30192A463946FDF7EDFF6019D4
:10A1F0002BB0F0BD641CA4B26D1CADB2BD42BAD38D
:10A200002A98F5E7F7B5AAB00020009001200F4684
:10A210000190FFF77BFE01F045FF050024D002AE60
:10A2200000241FE0A0B222A901F0F6FE002818D0F9
:10A23000A0B202A901F004FF002005E02A99325CD7
:10A24000095C8A420DD1401CB842F7D32C980028F3
:10A250000DD0019800280AD0A0B201F0BFFE002066
:10A260000190641CAC42DDD300982DB0F0BD0121FB
:10A270003046FFF761FE002805D081890122C9011F
:10A28000120489180091FFF70DFEEDE770B5A8B034
:10A290000646FFF73BFE01F005FF050014D0002441
:10A2A00010E0A0B220A901F0B7FE002809D0A0B2AA
:10A2B000694601F0C5FE31466846FDF7BEFF00283D
:10A2C00005D0641CAC42ECD3002028B070BD012046
:10A2D000FBE7000010B518210348FDF79CFFFFF7CE
:10A2E000C7FB01F02BFF10BDE841002070B50D4603
:10A2F0000446C1091646042000F0BCF8002807D027
:10A300001320800320183246294600F0F9FF70BD63
:10A31000FF2280212846FDF777FF70BD70B5044607
:10A320000D462146002000F0A5F8002805D0E001E8
:10A330008022294600F0E4FF70BDFF2280212846DC
:10A34000FDF762FF70BD000070B504460D46214662
:10A35000012000F08FF8002808D00748802200680C
:10A3600029460019C00100F0CBFF70BDFF228021FB
:10A370002846FDF749FF70BD3841002010B500F0B8
:10A38000BFFF10BD70B504460D462146022000F007
:10A3900071F8002808D00748802240682946001933
:10A3A000C00100F0ADFF70BDFF2280212846FDF7FF
:10A3B0002BFF70BD3841002070B50E460446C10920
:10A3C000A0B01546042000F055F800280BD02A460E
:10A3D00031466846FDF7F8FE1320800320182A4610
:10A3E000694600F0AAFF20B070BD70B504460D4666
:10A3F0002146002000F03EF8002804D0E001802231
:10A40000294600F09AFF70BD70B504460D462146FE
:10A41000012000F02FF8002807D0044880220068AF
:10A4200029460019C00100F088FF70BD38410020A6
:10A4300030B5A1B0054614466846FDF7C5FE224674
:10A440006946284600F079FF21B030BD70B504465A
:10A450000D462146022000F00DF8002807D00448E0
:10A460008022406829460019C00100F066FF70BDD7
:10A470003841002010B5030003F0FBFC0504070A77
:10A480000D10210004290DD219E0FC290AD216E092
:10A49000FF2907D813E00F20C00101E0012040028E
:10A4A00081420CD300F022FC002801D0002000E003
:10A4B000012000F00EF802F061FC002010BD012028
:10A4C00010BD1321890310B54018032100F01FFFB0
:10A4D00010BD70B5054600F014F80446284600F09B
:10A4E00003F8001980B270BD014610B500200029A4
:10A4F00006D0132110248903204604F02DFB2046AA
:10A5000010BD10B54C240021204604F025FB204648
:10A5100010BD000070B504460D4621460320FFF72C
:10A52000A9FF002808D00748802280682946001922
:10A53000C00100F0E5FE70BDFF2280212846FDF736
:10A5400063FE70BD3841002070B504460D462146BB
:10A550000320FFF78FFF002807D00448802280687F
:10A5600029460019C00100F0E8FE70BD3841002006
:10A57000FFB5002593B02C46119501F0B5FA0028DF
:10A5800075D11498FDF752FEC7B21599149805F0CD
:10A590009BFF0F9002A904A8099108908BE01199E4
:10A5A0001498EA000901005D5618802E6FD8014604
:10A5B00020395E294CD81599102915D008214B0453
:10A5C000C000C018FF386A46013800F0DFFF169857
:10A5D000002832D00F986021081A411006206843E5
:10A5E0000918139808182CE06A46102105F0A6FFF8
:10A5F0001698002815D00F986021081A401081196C
:10A600001398082208186946FDF7DEFD0F9880218F
:10A61000081A401081191398082208186030099907
:10A6200011E013980822801906466946FDF7CCFD13
:10A63000304660300822099905E0062013996843E6
:10A64000401806226946FDF7BFFD6D1CEDB20CE017
:10A6500000090E2809D114980019417889090229A6
:10A6600003D181788909022902D0641C22E028E004
:10A670006A46202105F06EFF1698002808D00F9931
:10A680006020401A401081191398081802E015E064
:10A6900013988019064610226946FDF795FD30464D
:10A6A000603010220899FDF78FFD1198401CC0B250
:10A6B000E41C1190A4B2BC4200D270E70F9880282D
:10A6C00000D9FF2017B0F0BDF8B5384D0446284634
:10A6D000A0302F46A8370A460090632901D3632291
:10A6E00026E0092A24D80807000E2D182046082243
:10A6F00029463430FDF768FD2946204608310822F6
:10A70000B430FDF761FD204608213C30FDF783FDA4
:10A7100020460821BC30FDF77EFD2046082244304B
:10A720000099FDF751FD082220463946C43039E032
:10A730000A211046FDF71EFD09070E0E00071B49F2
:10A74000000E091820460D4608223030FDF73CFD6A
:10A750002946204608310822B030FDF735FD134860
:10A7600008228619204631463830FDF72DFD314646
:10A77000204608310822B830FDF726FD2046082182
:10A780004030FDF748FD20460821C030FDF743FD6D
:10A790002046082248300099FDF716FD2046082281
:10A7A0003946C830FDF710FDF8BD0000D67C020028
:10A7B0000348C16B002901D00021C163704700002C
:10A7C0004061004010B50021102006F01FFB6420FE
:10A7D000FEF7CBFA0121102006F018FB10BD000097
:10A7E00010B50121002006F011FB2F48022404605F
:10A7F000001D0460001D046000222146042006F0B4
:10A80000F7FA294810300460001D0460001D046040
:10A810000121082006F0FAFA03221146092006F069
:10A82000E7FA01210A2006F0F1FA1F4828300460F7
:10A83000001D0460001D0460001D0460001D046014
:10A840000121102006F0E2FA174840300460002190
:10A85000122006F0DBFA03220021132006F0C8FACA
:10A860000121142006F0D2FA0F4850300460001D78
:10A870000460001D04600121182006F0C7FA0A4890
:10A880006030046000211A2006F0C0FA06486C30DF
:10A890000460001D046001211E2006F0B7FA024882
:10A8A0007830046010BD0000040700500120044906
:10A8B000C00748600321062033DF06202EDF7047E3
:10A8C0000063004010B503488079002801D002F0F1
:10A8D000A7FA10BDF043002010B500211B2006F0A0
:10A8E00095FA224900208871214902200860091D3B
:10A8F0000860091D0860091D0860091D0860091D20
:10A900000860091D0860091D0860091D0860091D0F
:10A910000860091D0860091D0860091D0860091DFF
:10A920000860091D0860091D0860091D0860091DEF
:10A930000860091D0860091D0860091D0860091DDF
:10A940000860091D0860091D0860091D0860091DCF
:10A950000860091D0860064970310860091D08601B
:10A96000091D0860091D086010BD0000F0430020AB
:10A970000007005010B501211B2006F047FA0249DC
:10A980000120887110BD0000F04300201CB5002894
:10A9900012D0012810D10949094C0869496901916F
:10A9A0000090607C002807D068460BF0D9FB00209F
:10A9B00060740120FEF7D9F91CBD0000887D0200FB
:10A9C000F04300201CB5002811D001280FD1084900
:10A9D000084C8868C96801910090607C002806D105
:10A9E00068460BF0D5FB01206074FEF7BEF91CBD74
:10A9F000887D0200F043002000B587B0002820D0F9
:10AA00001149002303C90490CD20C0040591029090
:10AA10000D2000900B2001900320694608731A4610
:10AA200004A80BF0E9FB002803D008A2D32109F009
:10AA300018FB04A80BF0ACFB094901204874FEF791
:10AA400094F907B000BD0000887D02002E2E5C73D3
:10AA50006F757263655C6770696F2E63000000003C
:10AA6000F04300201CB504498869C9690090019130
:10AA700068460BF0D1F91CBD887D020070B5054613
:10AA8000FEF7BAFC0646002401F07AFC01211220F0
:10AA900006F0BCF907E003F007F948DFFEF7ACFC6D
:10AAA000841BAC4201D8AC42F5D30021122006F041
:10AAB000ADF970BD10B5002801D0012100E00021E2
:10AAC000122006F0A3F910BD10B517489EB000681B
:10AAD0001C90062438216846FDF79DFB6846C4702B
:10AAE000012101821CA8059038210EA8FDF793FBD7
:10AAF000022108A801760EA9684609F0C8FB7D244A
:10AB0000E400002803D02046FEF72FF935DF03F0DC
:10AB10000DFD064873DF002803D02046FEF725F917
:10AB200035DF1EB010BD0000A87D0200D443002018
:10AB3000FEB51B4CFEF760FC1A492546086000264E
:10AB400040352046AE774838C07F012822D0022702
:10AB5000022823D000200AF0D7F8E08A3843E082A8
:10AB60001021684601802021418004218180C82174
:10AB7000C18001220199009809F082FC002808D1C7
:10AB8000684609F039FC002803D12046EE775C3096
:10AB900062DFFEBD02200AF0B7F8E1E70120DAE744
:10ABA00038470020F043002010B5FFF7E3FE02F025
:10ABB00005FD01F0E5FA03F0EFFC0CF0ADFEFFF748
:10ABC0000FFE0021084601F07FFE0B4901200874AA
:10ABD000FFF712FF00F0B8FB01F084FFFFF766FEFD
:10ABE00001F0D4FCFEF728F94B20C000FEF7BDF8B9
:10ABF00002F08CF910BD0000F0430020FEB5204C9F
:10AC0000FEF7FAFB064600F06FFF002805D11D484D
:10AC10001D4A01688918B14201D90020FEBD2546B0
:10AC200001274035AF770660C82168460180FF21C3
:10AC300041314180042181804B21C900C180002223
:10AC40000199009809F01CFC002817D10C484838DD
:10AC5000C07F01280AD002280AD000200AF054F848
:10AC6000684609F0C9FB002804D007E00220F5E798
:10AC70000120F3E72046EF775C3062DF0120FEBD64
:10AC800038470020F0430020881300004178007806
:10AC9000090208437047C1780A02817811430A0209
:10ACA00041780078114309020843704710B5074CFA
:10ACB0000020FFF706FC01200003FFF702FC002044
:10ACC000207620606060A06010BD0000104700206A
:10ACD00010B5054C0C2221460020FFF707FB002091
:10ACE000E0752076A07510BD104700200448054986
:10ACF000008C884201D1012070470020704700007D
:10AD0000F0460020A57F00000148007D704700004C
:10AD100010470020F0B591B0FE4CFEF76DFB0646E3
:10AD2000022002F03FF8207E2546FB4F203D030025
:10AD300003F09FF8110A365B7684BACBF6F5F4F38C
:10AD4000F2F1F0EFEEEDF100F448C079810605D59F
:10AD50000120BE6120762020607507E0410611D5F4
:10AD60000520BE6120762146402014E000F024FF3B
:10AD7000FF30FF300230F860803038614030B8601A
:10AD800011B0F0BD800708D5E548BE61F8610D201F
:10AD90002076214602204875E8E700206075EFE73D
:10ADA00001202075FF202E633870BE61B86801F065
:10ADB0007BFFB868DB491430386203F02FF80A22B1
:10ADC000B968F868FDF700FAF86806210A3005F05E
:10ADD000F1F9F9682C20887206F08EFCFA6838695F
:10ADE0001146FEF711F90220F9E0B9681022193175
:10ADF0003962F86802F0F4FFB9680A220A31F8688B
:10AE0000FDF7E2F9F86806210A3005F0D3F9F96890
:10AE10002C2088720A463869FEF7F6F80320DEE037
:10AE2000B9682C20392250543A3139621022F8681E
:10AE300002F0D6FF0420207600203AE1022001F043
:10AE40005FFF002824D003F019FD0021B6A0FFF712
:10AE500073F805465A22B968FFF734F92846FFF718
:10AE600021F8022001F09EFF002020767E61AB4990
:10AE70003870CA79DF231A40CA71B880607D2028F3
:10AE80008DD10120A075801EE060FEF701FB77E701
:10AE9000B988481CB8807D20C0008142F7D90B20BA
:10AEA00020760E20E0756BE7012020759B482E630D
:10AEB000C07921464006EAD5062008760020B87001
:10AEC000FF217970B880BE615AE7022001F018FFB7
:10AED000002848D00025BD8098A0FFF7D7F90128A9
:10AEE00008D00B2020767D700320E075022001F051
:10AEF00059FF45E7012191A0FFF71EF8054640687C
:10AF0000622828460DD0FEF7CDFF04201AE03AE172
:10AF10002BE1ECE0CFE03FE1A8E062E058E042E066
:10AF20002DE06222B968FFF77FF82846FEF7BAFFE6
:10AF3000B8682021095C2C2903D14121095C2C2906
:10AF400004D00520E0750B202076CFE72022F96899
:10AF500002F0E0FE06F0D0FBFA6838691146FEF711
:10AF60003BF80720F0E7B8887D21401C80B2C9007B
:10AF7000B88088428BD90B2020760F2092E71022D0
:10AF8000F968B868FDF720F9B86820222130F9681F
:10AF900002F0C0FE06F0B0FBFA6838691146FEF711
:10AFA0001BF808201BE0B86810220A30F968FDF78A
:10AFB0000BF9B86820224230F96802F0ABFE06F0C7
:10AFC0009BFBFA6838691146FEF706F8092006E08F
:10AFD000B86810222030F968FDF7F6F80A202076CC
:10AFE000CEE61421B86808F02FFBB9682C2008754C
:10AFF000152620200A5C2C2A06D08A55761C401C77
:10B00000C0B2F6B22D28F5D3FE80B868403001F00A
:10B010004BFEB868142201464031FDF729F90004BF
:10B02000000C05D03E4868620920E0750B20D6E789
:10B0300000200123761EF861F1B2BD680EE06A5C63
:10B04000303A0B2A04D30A21E1750B21217607E05F
:10B050005A4310180A225343491EC9B21529EED289
:10B06000F861207E0B28BBD00D20B8E700253D708D
:10B070007D70022001F044FE002804D1B8887D21B3
:10B08000C900884214D9022001F08CFE234925769C
:10B09000C8799D221040C8713D707D70BD8004202C
:10B0A000A075401FE060FEF7F3F903F0E7FB67E6E9
:10B0B000401CB88064E60120207518482E6380305B
:10B0C000C069A862F86968622248288422486884B6
:10B0D0000E2012492076C879BD221040C87102F0B6
:10B0E00041FA012000F006FE02F040FA48E60F2186
:10B0F0002176607D402831D0022834D00420A0750C
:10B10000696AE160FEF7C4F9FEF776F9B8610020DC
:10B11000207535E61047002008400020F04300204D
:10B12000FFFFFF7FAC7D0200736563757269747900
:10B130005F6465766963652E747874007365637502
:10B14000726974795F736572766963652E74787459
:10B1500000000000A57F0000341200000220A0754E
:10B1600000207870CCE70320C9E72846203007C8C4
:10B170006B4607C30C2269460020FFF71DF910201B
:10B1800020762E63FCE50649286B4018B0428ED22B
:10B1900001F012FE002022E70B202076112081E62C
:10B1A0008813000010B5312005F030FD01484078CB
:10B1B00010BD00007654002010B5392005F026FDA2
:10B1C0000148407810BD00007654002010B547219A
:10B1D000202007F023FF0120FDF7C7FD09212120D2
:10B1E00007F01CFF4021222007F018FF0021232038
:10B1F00007F014FF4821242007F010FF0821322017
:10B2000007F00CFF0121332007F008FF262005F08E
:10B21000FDFC2A21302007F001FF312005F0F6FC6B
:10B22000002010BD10B500F00DF810BD10B52F2096
:10B2300005F0ECFC02484078C006C00E10BD0000CE
:10B240007654002010B5214CE07D002813D03F211A
:10B25000382007F0E3FE30213A2007F0DFFE10210E
:10B260003B2007F0DBFE0A213C2007F0D7FE20211F
:10B270003D2007F0D3FE0021322007F0CFFE002151
:10B28000332007F0CBFE4721202007F0C7FE002126
:10B29000212007F0C3FEE07D002801D0842100E0DA
:10B2A0000421222007F0BAFE1821232007F0B6FE61
:10B2B0004821242007F0B2FE99212E2007F0AEFE8F
:10B2C0000021252007F0AAFE002010BDD044002058
:10B2D00010B50446282005F043FC0622024920460A
:10B2E000FCF772FF10BD00007754002010B50F204E
:10B2F00005F08CFC0148407810BD00007654002019
:10B30000134610B50A46194600F040F910BD10B5B5
:10B31000032905D0022907D0012908D0002909D026
:10B3200000F072F8002010BD00F03CF8FAE700F0E1
:10B330009DF8F7E700F00CF8F4E7134610B50A465D
:10B34000194600F0DBF810BD10B500F0C1F810BDD3
:10B350007CB5114C00252078002802D0257000F023
:10B3600091F900F0A1F90D49C72008700A20019059
:10B370000B4B01220095002001F0E8FA08F0E8FBF1
:10B3800000F0B2FB002806D12078002803D101206C
:10B39000207000F0E9F87CBD2C4000206C540020A7
:10B3A000765400207CB5154D0446287800260028E8
:10B3B00002D02E7000F066F900F076F910485221A4
:10B3C0000170210C4170210A8170C4700A20019023
:10B3D0000C4B04220A490096002001F0B7FA08F04D
:10B3E000B7FB00F081FB002806D12878002803D1A4
:10B3F0000120287000F0B8F87CBD00002C4000202F
:10B400006C540020765400207CB5154D04462878F5
:10B410000026002802D02E7000F034F900F044F924
:10B42000104820210170210C4170210A8170C470E4
:10B430000A2001900C4B04220A490096002001F0DA
:10B4400085FA08F085FB00F04FFB002806D128782C
:10B45000002803D10120287000F086F87CBD000090
:10B460002C4000206C540020765400207CB5154DF3
:10B47000044628780026002802D02E7000F002F939
:10B4800000F012F91048D8210170210C4170210AF6
:10B490008170C4700A2001900C4B04220A49009666
:10B4A000002001F053FA08F053FB00F01DFB0028C8
:10B4B00006D12878002803D10120287000F054F824
:10B4C0007CBD00002C4000206C54002076540020ED
:10B4D00008B500F049F8074901200870684600F0F7
:10B4E0008BF8694604480978C17369464978017444
:10B4F00008BD00002C40002010440020F7B50F4686
:10B50000184E0446C51930786D1E002803D000205F
:10B51000307000F0B7F8200A290A000209028842B8
:10B5200003D139462046029A0DE0FF21201A01314D
:10B530000D1AA9B22046029A06F016FD029A791B4E
:10B540006019521989B206F00FFD00F0CDFA0028FB
:10B5500006D13078002803D10120307000F004F8C3
:10B56000FEBD00002C4000201CB50649B920087023
:10B570000A2100200191044B01220090014901F0B1
:10B58000E5F91CBD6C54002076540020F0B5184D30
:10B5900004462878C3B017460E46002803D0002082
:10B5A000287000F06FF8134803210170210C4170DE
:10B5B000210A8170C470301D0A2180B2019100906F
:10B5C00002AB04220B49002001F0C0F9324603A966
:10B5D0003846FCF7F9FD00F087FA002806D12878F4
:10B5E000002803D101202870FFF7BEFF43B0F0BD53
:10B5F0002C4000206C5400207CB5134C054620786C
:10B60000002803D00020207000F03CF80F499F2054
:10B6100008700A210620019100900D4B01220B4970
:10B62000002001F093F90A48017929704079687087
:10B6300000F05AFA002806D12078002803D1012012
:10B640002070FFF791FF7CBD2C4000206C5400203F
:10B65000765400201CB5094805210170AA214170CB
:10B6600002200A21024601910090054B0349002067
:10B6700001F06CF9024840781CBD00006C540020B9
:10B68000765400201CB50649AB2008700A21002022
:10B690000191044B01220090014901F057F91CBDB2
:10B6A0006C540020765400201CB50B48002401780F
:10B6B000002902D00470FFF7E5FF08490620087052
:10B6C0000A200190064B01220094002001F03EF96F
:10B6D00008F03EFA1CBD00002C4000206C540020F5
:10B6E0007654002010B5084602A102F097FBC0B2C4
:10B6F00010BD00004E6F206D65737361676521009A
:10B7000010B5084602A102F089FBC0B210BD0000CE
:10B710004E6F206D657373616765210010B502A1DE
:10B7200002F07CFBC0B210BD4E6F2043616C6C65B3
:10B73000724944210000000010B5084C207D052806
:10B7400007D001F053FF002805D1E07E0A38072812
:10B7500001D8012010BD002010BD0000904A00203B
:10B7600010B507480021C170032141710121C17149
:10B7700004490220C8710449052002F00FF910BDE8
:10B78000104C0020B04A0020B80B0000F8B5FDF7BF
:10B7900033FE054600F0A8F90027284C0028E07980
:10B7A00002D0002845D1F8BD002801D000F0E8FD06
:10B7B000E179224E0220203E0B0002F05AFB0604E3
:10B7C00005080E1C2D3AEEE7E0712771F8BD6420E4
:10B7D000F561FFF753F903201CE0F0696430A842DB
:10B7E000F4D20020FFF766F90420E071F561E078FB
:10B7F000401CE070F8BDF169FF319131A942F9D2E6
:10B80000E178032906D30520E0712079401C2071DE
:10B81000F561F8BDE071F8BD7D22F169120189186A
:10B82000A942F8D221796279914202D2E071E7709F
:10B83000F8BDE7710020FFF73DF9F8BD104C00207E
:10B8400010B503490020C871FFF734F910BD00009E
:10B85000104C00208307FF22DB0E9A408907090E57
:10B86000994000280BDA0007000F083883080848C1
:10B870009B001818C36993430B43C3617047830847
:10B8800004489B001B1818689043084318607047D1
:10B8900000ED00E000E400E0FEB50446402007F0C3
:10B8A000CFFB002501272E46BF062846B030C0B288
:10B8B00007F0C6FB112007F0C3FB022007F0C0FB16
:10B8C00007486022214687600096064B00200196BB
:10B8D00001F03CF86D1CEDB26034082DE5D3FEBDDF
:10B8E000000500507654002010B50446AE2007F045
:10B8F000A7FBD52007F0A4FB802007F0A1FBA82020
:10B9000007F09EFB3F2007F09BFBD32007F098FB3E
:10B91000002007F095FB402007F092FBAD2007F0D8
:10B920008FFB8B2007F08CFB332007F089FBA120D5
:10B9300007F086FBC82007F083FBDA2007F080FBC6
:10B94000122007F07DFB204600F024F8D92007F0F4
:10B9500077FB222007F074FBDB2007F071FB40200F
:10B9600007F06EFBA42007F06BFBA62007F068FB36
:10B9700010BD0000012002490006C86070470000A9
:10B980000005005001200249000688607047000051
:10B990000005005010B50446812007F051FB2046F9
:10B9A00007F04EFB10BD10B5002801D0AF2000E01D
:10B9B000AE2007F045FB10BD034806210171024986
:10B9C00000202839C8757047B84A002010B5094CC6
:10B9D00000F0D6FCFDF786FB002802D00120FDF721
:10B9E00047FB2079002801D0002010BD01202071E4
:10B9F00010BD0000B84A0020F8B5334CFDF7FCFC40
:10BA000007462079002801D000F0BAFC20790026F2
:10BA10000125030002F02DFA0844050C1A1F4445C5
:10BA20004F44FDF7E9FC2060FFF7ACFF022036E051
:10BA30002068381A672833D90125244E2D06F56071
:10BA40000220FDF792F9B560032028E0CC20FFF733
:10BA50004BFF042023E01C482838C575FDF7CCFCBB
:10BA60001B491C4F8862184808384570797E491E6A
:10BA700003290AD8C6710021052001F07DFF164870
:10BA8000417B7975807BB875FD7512482030C0798F
:10BA9000002803D00021052001F06EFF0520207151
:10BAA000F8BD0020FFF77FFFFFF764FFFDF7A4FC60
:10BAB00020600720F3E7FDF79FFC2168401A672804
:10BAC000EED92671F8BD0000B84A002000050050EC
:10BAD00070470020F04B00209044002001490120D5
:10BAE00008717047D04A00200248007D002800D02D
:10BAF00001207047B04A002010B50BA0FEF7C6FB2E
:10BB000000280CD00CA0FEF7C1FB012808D00CA027
:10BB1000FEF7BCFB012802D00BA0FEF7B7FB10BD5F
:10BB200007F02AFB10BD00006F74615F73746172CF
:10BB3000742E7478740000006170702E62696E005B
:10BB400073642E62696E000063792E62696E000074
:10BB500010B506490028087507D00548407B5A28CB
:10BB600003D90021062001F019FF10BDB04A0020C2
:10BB7000F043002010B50C490C48FCF74CFB0B4976
:10BB8000322048600A49642088830220E031087628
:10BB9000072080310874074A0021117704490822E0
:10BBA0008039CA72087210BD9C050000384C002014
:10BBB000784F00203851002000487047384C002052
:10BBC0000148C07A70470000F84E0020F7B5444C99
:10BBD00086B020684349401C2060896C0026401ACA
:10BBE000FF21F531404F884203D90020387102F01F
:10BBF0001FFE3B483D4908300190009106A80EC841
:10BC000002A805F0F3FC02AB07CB683407C4344D3F
:10BC100000237435743C02F081FE696800290FD05E
:10BC200029686960401AC0100818286003F0C0FB3A
:10BC3000002807D000200226387102F0F9FD07E045
:10BC40006860F2E7264861688030808E884212D8AA
:10BC500006F0A6F806AB07CB02F03AFB204880308E
:10BC6000024611467C314B68D26F89680366C26513
:10BC70004166B00702D5304609B0F0BD07F0E6FADC
:10BC80001B4D00280ED006AF07CF012302F0A0FD08
:10BC900014480121A038017206F0E0FF2868401C1A
:10BCA000286004E006AF07CF002302F091FD06F004
:10BCB00021F800280ED00C48A038817A002909D13B
:10BCC000C07A0326002802D06868401C6860012002
:10BCD00000F010F806AD07CDE36F07F055FCCAE79A
:10BCE000384C0020B84D0020984F0020F67D02000F
:10BCF000304000200349002801D0034800E00348F9
:10BD00008860704730400020C0390600300B0100C9
:10BD10000C48417AC0795A2901D25A2811D3884255
:10BD200007D9421AD2B20A2A0BD35007400F08187B
:10BD300006E00A1AD2B2102A03D35007400F081A9D
:10BD4000C0B27047D04A002030B50446A1B00320ED
:10BD5000402269468003FEF7C9FA0D49FF220B7E97
:10BD60006D462046002B0ED0834200D800204400B0
:10BD70002B5D64196478182B05D23C2C03D24B75CB
:10BD80008C7521B030BD4A758A750020F9E7000036
:10BD9000F04B0020F0B5A1B06E46FEF7A7FF0025DE
:10BDA000204C002808D020481F4F8078603F002892
:10BDB00007D0387B042804D9A5742574657421B094
:10BDC000F0BD207E00281ED003204022694680035B
:10BDD000FEF78CFAB97B00208E46797B237E8C4659
:10BDE0000FE031787278B61C18290CD23C2A0AD29E
:10BDF0008C4502D1964510D301E08C450DD3401CF3
:10BE0000C0B28342EDD8A57425746574207E0028E5
:10BE1000D5D00020FFF798FFD1E70120A07421744E
:10BE20006274F3E7F04B0020F0440020F0B50327E4
:10BE3000A1B00446BF036E463846FEF742FB3220EF
:10BE4000FCF793FF20780D4D40082876202802D972
:10BE50002020287601E0002802D00020FFF774FFA0
:10BE60004022611C3046FCF7AFF94022314638468B
:10BE7000FEF7A2FA0520687621B0F0BDF04B002055
:10BE800070B5FDF7B9FA0546FFF72EFE002826D15A
:10BE9000324C607E002801D000F072FA617E0026EC
:10BEA00001200B0001F0E5FF0504242A3848560064
:10BEB000A17C002914D02A49237C4A7B9A420FD3C3
:10BEC000897B627C91420BD36076E6742675E075BF
:10BED00024487D21C671C900052001F05FFD70BDB9
:10BEE0001E482030C0790028F9D1FEF7E3FD70BD6F
:10BEF000C820E560FEF7C2FD02201BE0E068C83004
:10BF0000A842F4D20020FEF7D5FD03206076E5605C
:10BF1000E07C401CE07470BDE168FF319131A942C2
:10BF2000F9D2E17C022905D304206076207D401CF3
:10BF3000207570BD607670BD7D22E16812018918A0
:10BF4000A942F8D2217D082901D30520F2E76076C5
:10BF5000E67470BDFFF71EFF667670BDF04B0020E3
:10BF600090440020B04A002010B50C4607F054FA67
:10BF7000024801684C600121817210BD804300209D
:10BF8000F8B5154C0E460746E08801218902154692
:10BF9000884202D30020C043F8BD07F03DFA216873
:10BFA00000200860216848602168C87321688D817D
:10BFB00021684E8121688877216820208873216854
:10BFC0007F20C8770120A072206839464089FEF79B
:10BFD000BBFA0620205EF8BD8043002010B50D4C52
:10BFE000E188814215D307F017FA2068808900287C
:10BFF00001D0FDF7D1FC20684089FDF7CDFC206819
:10C00000C17F7F2905D13F21C1770120A07200F0B7
:10C0100085F810BD8043002010B50C4607F0FCF9F0
:10C0200006490968C87F7F2801D0002010BD202262
:10C030002046FCF7C9F8012010BD00008043002015
:10C0400010B50C4607F0E8F903482146006840891E
:10C05000FEF760FA012010BD8043002010B507F004
:10C06000DBF902480068C07B10BD0000804300205F
:10C0700070B500200A4C0126E0800546B60228462D
:10C0800007F0CAF92068C07FFF2806D0E0886D1C41
:10C09000401CADB2E080B542F1D3E08870BD000035
:10C0A000804300200148C088704700008043002082
:10C0B00070B514460D4607F0AFF905480168898947
:10C0C00029800168496821600068008970BD00000E
:10C0D0008043002010B50C4607F09EF90248016825
:10C0E0000C810121817210BD8043002010B50C46E7
:10C0F00007F092F9024801680C600121817210BDBD
:10C100008043002010B50C4607F086F9024801680C
:10C11000CC730121817210BD8043002010B5064C04
:10C12000A07A002807D02089214680088039FEF7B0
:10C130008DF90020A07210BD8043002010B5074982
:10C140000020FEF71FF905490846803001600021F4
:10C15000818001818172FFF78BFF10BD00430020B9
:10C1600010B506490020086048608860C86003492F
:10C170004039086048600BF043F810BD40110140A1
:10C1800010B50023114A0721184607F0C9FF0028FF
:10C1900003D00FA2842107F064FF114A0121114846
:10C1A00007F0A8FF002803D009A28A2107F059FF51
:10C1B0000C480D4A0121001D07F09CFF002803D008
:10C1C00003A2902107F04DFF002010BD1452002063
:10C1D0002E2E5C736F757263655C5254432E630040
:10C1E00021C401000C7E0200DDBA010010B5054833
:10C1F000012100220904006807F0DAFF00F0C0F80E
:10C20000002010BD0C7E02000A4B10B5084A5943AD
:10C21000D269074B521A203304215956E1239B005F
:10C22000594309B252180146104600F043F810BDB8
:10C2300070440020805101000A4B10B5084A594350
:10C24000D269074B5218203304215956E1239B0031
:10C25000594309B252180146104600F02BF810BDA0
:10C26000704400208051010030B509493C25CA695D
:10C2700020318C7BCB7B6C43E318497BE124240188
:10C280006143C918034B58434018101A30BD0000D1
:10C29000704400208051010010B5054B04229A56CD
:10C2A000E1239B005A43801800F004F810BD000001
:10C2B00090440020F8B50C4606462E49FBF75AFF7D
:10C2C00005462C48E1216843371A2B482080012677
:10C2D000A670E67009013846FBF74CFFC0B2E121B9
:10C2E000607109014843381A3C21FBF743FFA071F4
:10C2F0003C213846FBF73EFFE1710721E81CFBF7C4
:10C3000039FF2171FF2300216F335F1E22889007C0
:10C310001DD03846854206D3521C491C2D1AC9B27D
:10C320002280C829F2D32078800712D01349002038
:10C330000A5CAA4208D8A278521CA2700A5C401C6F
:10C34000AD1AC0B20C28F3D37019E070F8BD1846CE
:10C35000E0E70A4900200C390A5CAA42F4D8A27826
:10C36000521CA2700A5C401CAD1AC0B20C28F3D358
:10C37000EAE7000080510100B2070000207E0200C1
:10C3800010B5FDF739F80B49886308462030017D68
:10C3900000290DD101210175084800220649406895
:10C3A00007F006FF002803D005A2C22107F059FEBE
:10C3B00010BD0000704400208F0200000C7E0200BF
:10C3C0002E2E5C736F757263655C5254432E63004E
:10C3D00010B5FDF711F809497D22896B1201891802
:10C3E00081420AD205482030017D002905D0002174
:10C3F00001750348406807F019FF10BD7044002024
:10C400000C7E020010B5054C206807F00FFF0321D9
:10C4100000220904206807F0CBFE10BD0C7E02004C
:10C42000FEB5374D2C46286A2034002811D001A8CB
:10C4300007F058FE6A46296A019807F04CFE0098FA
:10C44000C60BF0030090296A08180002000A28624F
:10C4500004E0204607F046FE286AC60B284F403706
:10C46000388980193881F0B2FCF75EFD286B80199D
:10C470002863E8698019E861B87B802801D28019B7
:10C48000B8737889FF212D31884201D280197881D3
:10C4900000F044FD002805D01A4988793C2801D2D3
:10C4A000801988711649E8692831FFF7F5FEA07BED
:10C4B000A2790121904210D02177A07110486030FC
:10C4C000C27E002A09D0627B837F9A4205D3C37F54
:10C4D0009A4202D2027F521E0277E07A627990423B
:10C4E00004D0A1776071084A05205076E279607B1C
:10C4F000824203D00C2800D16177E071FEBD0000BC
:10C500007044002030470020F04B00207CB500250F
:10C5100000950195FCF770FF1A4E0446307E002806
:10C5200002D0684600F042F8174800690009C007C9
:10C53000C00F06D0FEF736FE317E002902D005F08E
:10C5400033F87CBD04F076FC0E48C030C07D002876
:10C55000F7D0FEF731FE4007F3D50A487D22203898
:10C56000016FD200611A914209D20567FEF7BEFB46
:10C570000028E6D00021084601F010FA7CBD0467CF
:10C580007CBD0000104400200005005010B50A20BA
:10C59000FCF7EBFBFEF746FEFEF7A8FE02494873E8
:10C5A00000F014F810BD0000104400201CB50288F3
:10C5B00069460A8042884A8080888880019900986C
:10C5C00002F054F806F058FD1CBD000010B50C4CEC
:10C5D000FCF712FF0121206021710020E080208102
:10C5E0006081A0812061A07320756075A075E175E0
:10C5F000A076E0762076617620776077A07710BD10
:10C60000D84B002003490979814201D101207047AC
:10C6100000207047D84B0020F8B58C4C0027FCF761
:10C62000EBFE0220FFF7EEFF00250126002804D1D3
:10C630000320FFF7E7FF002806D01821615678296C
:10C6400000DDA676824885762079022801D003286D
:10C6500004D1E17D02290DD003290BD0012802D19C
:10C66000E07D012806D065752079022806D00328D0
:10C6700004D009E0607D401C6075F5E71522A256E4
:10C68000142A01DBA67506E0012804D115216156A4
:10C690000A2900DBA5752179E17500F03FFC00282F
:10C6A00002D02576667602E0207E401C2076A07DB2
:10C6B000002824D0207F4006000E2077617F0129CA
:10C6C00002D1304320776577207FC306DB0E844696
:10C6D00000210846324682401A4201D0491CC9B2A4
:10C6E000401CC0B20528F5D3032900D3A5756046C8
:10C6F000800704D018216156002900DDA575182196
:10C700006156052904DD0120FFF77CFF00280DD1CB
:10C71000182161565A290ADD0220FFF773FF00280D
:10C7200004D10320FFF76EFF002800D065760120BA
:10C73000FFF768FF00280CD0E07E002805D0012814
:10C7400001D0022803D0032715E0052713E00127B5
:10C7500011E00220FFF756FF002804D10320FFF765
:10C7600051FF002807D0E07E00280DD0012801D01D
:10C7700002280BD00A27E07E002809D0012801D02A
:10C78000022807D05A2006E00C27F4E70827F2E732
:10C79000642000E050200E2161561F2901DA491C57
:10C7A000A1730C22A25E82420ADB0320FFF72AFF5C
:10C7B000002804D10220FFF725FF002800D0A6762C
:10C7C0000C21615EB94201DB012000E0002006F08F
:10C7D000C5FF0C21615E052902DB3C20FCF71AFB3A
:10C7E000206A0C2140002062615E2246002929D087
:10C7F000A577502901DB30432062A581A07F0A285C
:10C8000011D3206A0002000A00221146C30700D09B
:10C81000521C4008491C2029F8DB082A03D30C4885
:10C8200020380575C574257521690020324682407F
:10C83000114202D1227D521C2275401CC0B2102828
:10C84000F4D3F8BD907F401CA077D6E7D84B0020EA
:10C85000D0440020024801218176417770470000D2
:10C86000D84B002070B5FF2109480931094C00253B
:10C87000455021460AF01CFD002808D1A079FF2868
:10C8800001D009F06DFE657121680020884770BDF8
:10C8900000300040F057002010B50021014809F099
:10C8A000FDFC10BD0040004010B5054C207C002868
:10C8B00004D0044809F030FC0020207410BD0000B2
:10C8C000F04300202C7E02001FB501236A4613703E
:10C8D0000223537005239370FF23D3700323137136
:10C8E000CC2353715A07002302926A46137300291E
:10C8F00000D001215173002814D10B4A69460B481E
:10C9000009F00EFB082807D1084809F005FC064A83
:10C910006946064809F004FB002803D004A27421EC
:10C9200007F09FFB1FBD0000496E02002C7E020035
:10C930002E2E5C736F757263655C7370695F6D61D9
:10C94000737465725F6170692E630000FFB5314CCE
:10C9500083B020780C9F164600280AD100250120BC
:10C96000FCF703FA2078002803D16D1CADB2C82D66
:10C97000F5D3294D287C002805D100210398FFF725
:10C98000A3FF01202874207800281ED1234809F035
:10C99000C3FB00210398FFF797FF1E2009F0BEFD9F
:10C9A0001E2009F0CDFD002009F0B8FD002009F09F
:10C9B000C7FD0A2009F0B2FD0A2009F0C1FD1420CC
:10C9C00009F0ACFD142009F0BBFD002020700546E5
:10C9D000FFB20D980190F2B200971048069B04999F
:10C9E00009F030FB040012D00C4809F095FB00213F
:10C9F0000398FFF769FF1420FCF7B7F96D1CEDB23F
:10CA00000A2DE6D3204606A29F2107F02AFB07B095
:10CA1000F0BD00003C400020F04300202C7E0200CE
:10CA20002E2E5C736F757263655C7370695F6D61E8
:10CA3000737465725F6170692E63000010B50AF04F
:10CA400075FB10BD04490122087850400870496800
:10CA5000002900D0084770479040002010B50848D2
:10CA60004068002808D08047002804D0FF21054AEC
:10CA7000413107F0F6FA10BD08F044FF10BD000088
:10CA8000EC400020B8A102007CB50020009001A875
:10CA900007F028FB0D4C6A46216A019807F01BFB42
:10CAA0007D21206BC9004843FBF7AEFD04460D46CF
:10CAB0000098FBF7A9FD064A064BFBF703FD22464B
:10CAC0002B46FBF7E5FBFBF7D1FD7CBD7044002056
:10CAD000FCA9F1D24D62404001480021017070472D
:10CAE0003D40002001490020087070473D40002073
:10CAF00010B5034A0121117028DF03F0D5FC10BDE9
:10CB00003D40002010B5034C0223237029DF03F0C1
:10CB1000CBFC10BD3D40002000B50023FCF70AFF10
:10CB200000BD0000F0B591B02E4F002501266C46E7
:10CB3000360304222146A819FDF7D8FB2078FF28E8
:10CB400002D04035B542F4D3B54206D33046FDF7A6
:10CB5000B8FC3220FCF709F9002540212046FBF7FC
:10CB60005AFB38680090201D00F0F4FF1D49204654
:10CB70009C394A7D203002730A7D42738A7D82731C
:10CB80000A7EC273CA7D02743A7A4274164A127ED1
:10CB9000C274164A52798275154A9379C3754B7BD4
:10CBA0000376002B01D1012303760E4B2433DF7C67
:10CBB00047761B7D83761279C2760C4A403AD27F43
:10CBC0000277094A203A127B42778A88120A8277D2
:10CBD0000979C17740222146A819FDF7EDFB012014
:10CBE00011B0F0BD8C440020F04B002030470020F5
:10CBF000B04A002010B5064CFCF76AFA002802D0B3
:10CC00000220FCF719FAE08A01210843E08210BDF6
:10CC10003847002010B5FDF75CFCFCF7D7FF322049
:10CC2000FCF7A3F8FDF756FB10BD10B585B0044620
:10CC3000684600F039F86846007C20706846407C01
:10CC400060706846807CA0706846C07CE07005B06B
:10CC500010BD000010B586B00446684600F024F808
:10CC60000FA1204601F0DAF86946C0B2097C2154D0
:10CC7000401C6946C0B2497C2154401C6946C0B280
:10CC8000897C2154401C6946C0B2C97C2154401C97
:10CC9000C0B200212154401CC0B206B010BD00003B
:10CCA0004342414E442000003CB514490A6A0092B8
:10CCB000496A0191482101704921417043218170E5
:10CCC0004221C1706A460021535C1B09092B01D91E
:10CCD000372400E03024E3184C0024182371535CFF
:10CCE0001B071B0F092B01D9372500E03025EB1856
:10CCF000491C89B263710829E6D33CBD400000108D
:10CD0000054A0146937B0020002B03D08B4200D1C3
:10CD1000012070479173FBE7F043002010B5FFF747
:10CD200065FAFDF7D5FFFCF7DDFE002804D0FDF71E
:10CD3000DDFF00280FD014E0FDF7D8FF002801D058
:10CD4000002000E00120FDF7C4FB3220FCF70DF8C5
:10CD5000FCF73CFF05E00120FDF7C6FB3220FCF7A5
:10CD600004F8FDF7B7FA00F039FE02F055FAFEF7C5
:10CD7000C3FE00F0A1FFFCF7C7F810BD10B5084CCA
:10CD8000FCF7A6F9002807D00120FCF755F9E08A46
:10CD900080210843E08210BD00F00EF810BD0000B5
:10CDA0003847002003498A7B824201D100208873E2
:10CDB00070470000F043002010B5FDF797FF0028F2
:10CDC00001D0FFF7AFFE35DF10BD000010B508F051
:10CDD000E9FD002805D00E490C484860C8130D49EC
:10CDE00088610D48018CC9B201290ED1818C0907D7
:10CDF0000BD1018D0906090F042906D1808D00068B
:10CE0000000F02D105490120886010BDDFFF07C077
:10CE100000050040006C0040C00F00F0000600401C
:10CE2000FEB5284CFCF7E8FA05462749206841186A
:10CE3000A94205D221790020002900D0207160711B
:10CE400022480069400AC007C00F3AD10AF06EFDBF
:10CE50001F4E6946306842699047002831D06846C5
:10CE60004078800701D5012100E00021204606F02E
:10CE7000FDF868464078400723D568460078C1062B
:10CE80008A0F02D14206920F05D04006820F890F09
:10CE9000204606F0DDFA68460078C00911D03068F7
:10CEA00002AAC36901A998476946887841004018D9
:10CEB00069460979FBF75EF9C1B22A46204603F0BC
:10CEC000B5FAFEBD2C470020DC050000000500502F
:10CED00040400020084800214279002A04D0017116
:10CEE00041718171072070478279002A02D08171D7
:10CEF000C0797047002070472C470020024900226B
:10CF000088798A71704700003047002010B508F01A
:10CF100087FA0149086010BD4040002010B5FBF7BA
:10CF2000A1FF002801D0002010BD0148407910BDAC
:10CF300030470020014880787047000030470020CB
:10CF40000146044803290068C26801D00121104746
:10CF50000021FCE74040002070B504460D4616460F
:10CF6000FCF74AFAFDF7C2FE002829D032462946CE
:10CF70002046FEF72BFE040022D0FEF721FE0128FA
:10CF80001FD000281CD0E1071AD0124D00262C46D5
:10CF9000E034022818D0032812D1286C401C2864E1
:10CFA00003F04AFE696C40186864FCF725FAA8662D
:10CFB0000120FBF7FBFE607F002809D0401E607750
:10CFC00070BD00F02BF870BDE86B401CE863E7E72C
:10CFD000A67670BDF043002070B5FDF787FE0028EF
:10CFE00018D00D4C0025207F002802D004F082FAD2
:10CFF0002577A07F002802D004F000FAA577607F93
:10D00000002807D06577044C0120A03CE56500F0BE
:10D01000B3F9206670BD00009044002010B5FEF703
:10D02000D5F8094C01202076FCF7E6F92146203995
:10D0300048630020A07600F0D9FA002802D003202F
:10D04000FFF77EFF10BD00001044002070B50546BC
:10D05000FCF7D2F91C490446002D08D1087E0028AF
:10D0600030D0887E401CC0B2887602282AD30020A7
:10D070000876FFF765FFFBF7F5FE002807D0FEF7FF
:10D080005BFB002803D10021042000F087FCFCF7A3
:10D0900029F8002802D00020FBF7EAFFFEF7D2F8BB
:10D0A000FEF768FD084E0949203E706B4018A0420B
:10D0B00002D20020FEF71EFE7463002D02D1044947
:10D0C0000120887370BD000010440020E09304002C
:10D0D000104C0020F0B50E46294993B014460028A4
:10D0E00027D0092E3AD001466846FFF78DF802AFE7
:10D0F00000254022D00139462818FDF7F7F8387886
:10D10000FF2834D002996A46029809049278090EE1
:10D11000C0B28A4226D16946C978814222D1042E02
:10D1200027D0062E29D0072E25D0092E11D10398FD
:10D1300024E0042E07D0062E0DD0072E06D0092E8F
:10D1400007D1086A04E003C9401801E0C86803E099
:10D15000106013B0F0BD88680009F9E7114600F0CF
:10D1600049F9F6E70120000340358542C1D300208C
:10D1700004E0049802E0069800E005982060E8E7E3
:10D180002C440020F0B5044687B00020FFF76CF86F
:10D19000694604912249002640180590E6812682BE
:10D1A00066826F4601252673102290023946301898
:10D1B000FDF79CF83878FF2810D000981036400012
:10D1C000400800900599884224D30498007B0228E7
:10D1D00006D003280CD0042810D019E0103619E02E
:10D1E000E0893C30E081032D0FD0042D0DD00FE0FD
:10D1F000208A3C302082042D07D004E0608A3C3035
:10D200006082032D01D0022D02D1207B401C2073AF
:10D210000498057B0120C0038642C5D307B0F0BD4A
:10D220004057FFFFF0B504468DB00020FFF71CF813
:10D2300000260C960896079600960B90266066606E
:10D240002681668102ADE6822F4626751022900265
:10D2500039463018FDF74AF83878FF2818D0029878
:10D260000B99400040081036029088422AD3287A51
:10D27000697A4018216809182160EA7A616889187A
:10D28000616000280BD02089A97A401820810AE02B
:10D290000C98002801D101200C90103612E0608912
:10D2A000A97A40186081A87B00280BD00098401C08
:10D2B0000090697B0798081807900421695E089818
:10D2C000081808900120C0038642BFD300980028A8
:10D2D00009D001460798FAF74DFF20750099089884
:10D2E000FAF748FF01E000202075E0820DB0F0BDA4
:10D2F000F0B5044687B00020FEF7B6FF00256E4665
:10D3000005960495069025606560E5602F46A5604A
:10D310001022900228180599FCF7E8FF0098411C9C
:10D3200023D04000400806991035009088420FD95C
:10D33000317A206840182060717A60684018606017
:10D34000F17AA0684018A060B17AE0684018E06007
:10D350000120C0038542DBD3A0680001A060E06823
:10D360000001E060049807B0F0BD002F01D1012753
:10D3700004951035ECE70000F0B5074685B00020B5
:10D38000FEF772FF69460025049118492C466E4647
:10D39000002F01D0471806E0154B5B7B0C2BF9D30F
:10D3A00012494942F6E71022900231462018FCF754
:10D3B0009DFF3078FF280FD00098103440004008BF
:10D3C0000090B8420BD90498007B022806D00328AD
:10D3D00004D0042802D002E0103400E03C350120E3
:10D3E000C0038442DFD3284605B0F0BD4057FFFF9D
:10D3F00090440020F0B50D461A4993B0497B0C29A2
:10D4000001D3401EC0B200281ED001466846FEF778
:10D41000FBFE0024012702AE7F0340223146E019C3
:10D42000FCF764FF3078FF2817D002996A4602980B
:10D4300009049278090EC0B28A4209D16946C978B6
:10D44000814205D1039809E00648A038006E05E046
:10D450000120000340348442DFD30020286013B051
:10D46000F0BD00009044002038B50D46044601216F
:10D47000284603F0CFFA684603F07CFC37486B4639
:10D48000C1693C3921605988A1806A782272A978E3
:10D4900061722B79A372EB78E3722B7823736B465E
:10D4A0001B7863736B465B78A373EB88E380002380
:10D4B000E373857E002D02D0007E0001E0738818A2
:10D4C0003C2802D925486030837668464078002899
:10D4D00028D0607A962807D996382D2802D9400896
:10D4E00094301EE086301CE0502805D950382D2895
:10D4F00000D940087D3014E0217A4018782805D9F9
:10D500007838232800D940086F300AE0642801D910
:10D51000801C06E0502801D9103002E03C2801D9D7
:10D5200017306073607A217A4018042801D9FFF718
:10D5300091F9E0880121C9030843E080607B282835
:10D5400004D907494A7A904201D9487238BD121A63
:10D55000D2B21E2AF9D952088018F6E7704400208A
:10D56000D04A002010B5FEF705FB10BD10B50CA089
:10D57000FCF78CFE012802D001F004FF10BD012150
:10D5800007A0FCF7D9FC04461C220B49FCF74CFD14
:10D590002046FCF787FC02A0FCF730FC10BD000021
:10D5A00061637469766974795F696E69745F746FB9
:10D5B00074616C2E736B64002C44002001490020C0
:10D5C000086070470025004010B5FEF7FFF97D2187
:10D5D0000901012000F0D0F90349022088750120DB
:10D5E0002031C87010BD0000904A00200348007D23
:10D5F000002801D00020704701207047904A002089
:10D6000009480021C27E0948162A06D20A2A01D3F7
:10D61000112A02D9017641768176182A02D901763B
:10D620004176817670470000904A002070440020C7
:10D63000F8B5C74DFBF7E0FE0646032000022C18A4
:10D64000E07B002836D0207B0027030000F011FC8F
:10D650000D3208637EC6ADD3EFEE3AB3EDEC320087
:10D66000607B002827D0BA480121677349020C303B
:10D67000FAF7D1FDB748B8494518B7498031441881
:10D68000B6494318B54980314218B548002106789B
:10D690002E704678267086781E70C6781670491CE3
:10D6A00089B2001D521C5B1C641C6D1C6229EED3E8
:10D6B00005F020FAF8BD03CD4018B042FAD27D2122
:10D6C000C90096E0607B002817D06773FBF7CAFBA0
:10D6D000002803D1FBF7D2FB002803D07D21C9002D
:10D6E0000A2007E0FDF702FB00282AD0012002F003
:10D6F00003F9F8BD00F040F9F8BD7D202968C000AD
:10D700000818B04203D3FFF715FC0028F4D07D21A0
:10D710000901062011E0607B0028EDD06773FDF75A
:10D72000E5FA00280DD0FBF7A9FB002802D00A205B
:10D73000207304E07D21C900072000F01DF9AE60D0
:10D74000F8BD03207D21A073C900D3E7607B0028CA
:10D7500004D0012205216773102016E003CD083D97
:10D760004018B042ECD27D20C0002E606860FDF70A
:10D77000CBFA002810D076487A49A838006B301AC6
:10D78000884205D201220021112001F01BFAF8BDC8
:10D790006F4888380775F8BDFEF7A6F9002802D053
:10D7A0000320E07416E0002123E0E27F31462846A2
:10D7B00002F080FAF8BD607B002805D065486773E9
:10D7C000407B01F0F3FEBAE77D20A968000108184C
:10D7D000B042EFD27D21C90007208BE7607B002893
:10D7E00001D06773DFE703CD4018B042E2D27D215C
:10D7F000490102207EE7FEF777F9002807D00320D1
:10D80000E0747D21C900072000F0B6F818E0FDF7AC
:10D810006DFA00280CD0FDF777FA00280CD0032011
:10D820007D21A073C90019E075E060E04AE04CE09A
:10D830007D214901022011E005F022FF002801D0DE
:10D84000AE600DE0E07C0A38072809D929686868CD
:10D850000818B04204D2FF219131072000F08CF863
:10D86000E17E41480090002901D0077800E00227BE
:10D870007D20C0004743E07C122802D005280AD052
:10D880000BE0FFF74BFB002807D0009847787D207E
:10D89000C000474301E035483F18A868C019B042AE
:10D8A00088D2FBF7DFFA002809D03148A9680818A8
:10D8B000B0428ED20C202073FFF7B0FBF8BD0C20D5
:10D8C0002073F8BD02F07CFEF8BD607B00280AD012
:10D8D0006773E07C272801D1207DE074C0B201216C
:10D8E00001F0A8FFF8BDFF21F531062002E7607BBB
:10D8F00000280AD0012367731A461321002001F083
:10D9000015F9AE60E7742775F8BD1948A9680818BD
:10D91000B042D4D3F8BD03CD411812480818B04224
:10D92000F8D2FEF749F82773E775E776114867776D
:10D9300007742038C775FFF763FE05F09DF90548A9
:10D940002030007E002800D00320FFF7F9FAF8BD50
:10D9500098470020F0430020C3030000C3040000E8
:10D960001799020060EA0000F044002088130000CC
:10D9700010270000104C002010B5074C03221202A3
:10D98000A218137B0B2B06D0012353731073616015
:10D99000FBF732FD206010BD9847002070B50C46A3
:10D9A0000546FEF713F8FBF727FD0A49001B08633D
:10D9B00001200949002DC87002D00021284605E049
:10D9C000FFF714FE002803D000210920FFF7D4FF41
:10D9D00070BD000070470020B04A002013480021AD
:10D9E00001614B224161828246220282AA22428246
:10D9F0008175242242830E4A0260520042600D4A21
:10DA00008260C2600177012242778177C17720303E
:10DA100001704170C1708171C17181700522027203
:10DA200019224272044AD17081727047C8440020A2
:10DA3000A0BB0D00C0270900F04B002030B5184AEC
:10DA4000037C1377437C5377837C93770023D377CE
:10DA5000047D203216391370C9B216305370032971
:10DA60001DD30378D370437893718378C91EC9B2EC
:10DA7000C01CD371022912D3037813724378801C1F
:10DA8000891E09065372090E09D00378401C054C03
:10DA9000491E0906E370090E01D00078907230BD6E
:10DAA000C8440020F04B002010B5427803781202E1
:10DAB0001A43C37884781B022343047940790349CD
:10DAC0000002204388820B824A8210BDC844002095
:10DAD00070B51E4C01252046F8380146E031A67885
