:020000040001F9
:10800000183F0020558101006F810100718101003E
:108010000000000000000000000000000000000060
:10802000000000000000000000000000738101005B
:108030000000000000000000758101007781010050
:1080400079810100798101008DDC010055D00100AA
:1080500081D001000000000061A4010059870100E7
:108060007981010079810100798101007981010024
:108070007981010079810100798101007981010014
:108080007981010019CA010079810100798101001B
:1080900091D00100E5D00100FDD0010079810100FF
:1080A00079810100798101000000000000000000DA
:1080B00000000000000000000000000000000000C0
:1080C0000348854600F00AFB00480047B94B020010
:1080D000183F0020401E00BF00BF00BF00BF00BF10
:1080E00000BF00BF00BF00BF00BF00BF00BFF1D195
:1080F00070470000401E00BF00BF00BF00BF00BFB0
:1081000000BF00BF00BF00BF00BF00BF00BFF1D174
:1081100070470000401E00BF00BF00BF00BF00BF8F
:1081200000BF00BF00BF00BF00BF00BF00BFF1D154
:1081300070470000401E00BF00BF00BF00BF00BF6F
:1081400000BF00BF00BF00BF00BF00BF00BFF1D134
:10815000704700000321094802680A43026008488A
:1081600002680A4302600748804707480047FEE765
:10817000FEE7FEE7FEE7FEE7FEE70000240500401D
:1081800054050040C5D40100C180010030B50B4644
:10819000014600202022012409E00D46D5409D42E1
:1081A00005D31D469540491B254695404019154667
:1081B000521E002DF1DC30BD70B50024254600288C
:1081C00001DA01244042002901DA01254942FFF782
:1081D000DDFFAC4200D04042002C00D0494270BDCF
:1081E00010B5431A934209D28318881803E0401E41
:1081F00001785B1E1970521EF9D210BD03460B4365
:108200009B0703D009E008C9121F08C0042AFAD24C
:1082100003E00B780370401C491C521EF9D210BDBC
:10822000D2B201E00270401C491EFBD2704700220E
:10823000F6E710B513460A4604461946FFF7F0FF65
:10824000204610BD421C0178401C0029FBD1801A39
:10825000704710B5002200E0521C835C8C5CA34286
:1082600001D1002BF8D1D8B2E1B2401A10BD30B51F
:1082700004460020034600E05B1C934203D2E05C0E
:10828000CD5C401BF8D030BD30B50546002003461C
:1082900000E05B1C934205D2EC5CC85C201A01D163
:1082A000002CF6D130BD0000F0B507460846584016
:1082B00087B0C00F049048000E4659004008490896
:1082C000BC1A884105D2384631461E4617460B4631
:1082D00002465800400810434CD0300D0390400532
:1082E0005900400D490D0590401A0290402872DA5D
:1082F00018030121000B090508430190049800921E
:10830000002805D001995242002088410092019036
:10831000029840210A1A0199009800F04BF905468D
:108320000C466B4607CB00F066F9C0197141039A01
:108330000E0D0023D71756401A467A40164344D0F4
:10834000049A002A2DD0029A012A039A15DC1205FC
:10835000C01A914101263605001C7141D20F059EBD
:10836000D2070093019202962A46234600F063F951
:1083700007B0F0BD38463146FAE71605224A0F46E7
:10838000B218C01AB74101210905001C4F4100185D
:108390007F41114618187941E20F10436D1964416D
:1083A00013E0E2076D0815436408C2071443039AFB
:1083B00001261205C01A91413605001C7141CE07F5
:1083C000400830434908C01851412A46234600F06E
:1083D00025F9CDE7FFE7049801224000C117121AE2
:1083E00000238B4104983146C417381AA141EEE7A7
:1083F00030B40124E407634030BC55E730B40124B5
:10840000E407614030BC4FE70000E0FFF0B50C46E8
:108410005C4085B0E40FE40703944C000026640838
:1084200059009446490802460296224321D06246EA
:108430000A431ED06200570D4A000E032303550D58
:10844000012402462C492405781B1B0B360B4018CF
:1084500023432643614600901C46501AB44103D37F
:108460000098401C009002E0921800985B410028A0
:1084700003DA0020014605B0F0BD00200121090506
:108480000746864611E064461D46141BB54106D3D7
:108490006546521BB341744607430C43A646CD07BD
:1084A00040084908284392185B4105460D43EAD12C
:1084B0001046184313D06046194650407140084397
:1084C00006D06046101AB34106D20122002306E00E
:1084D00000220123DB0702E00122D243531000985F
:1084E00074460105381C6141029C039D00196941D5
:1084F00000F094F8BFE70000FD0300000EB5054949
:108500000291002100910A460B46019100F093F878
:1085100003B000BD330400004A0009030123090B26
:108520001B051943094B10B5520D9A4201DA002080
:1085300010BD064B34339A4203DC9A1A00F04AF815
:1085400010BD03495118884010BD0000FF03000012
:10855000CDFBFFFFF0B51FB40646002082B00546F4
:108560004024019100901BE0019922460F463046BD
:1085700000F030F8049A059B801A994110D31046F8
:108580001946224600F016F8361A8F410197224606
:1085900001200021009F00F00DF838184D41009097
:1085A0002046641E0028DFDC019B009829463246E5
:1085B00007B0F0BD10B5202A04DB0146203A9140F7
:1085C000002010BD914020239C1A0346E34019432C
:1085D000904010BD10B5202A04DB0846203AD04058
:1085E000002110BD0B46D340D0402024A21A914058
:1085F0000843194610BD10B5202A06DBCB170846E4
:10860000203A1041C1170B4306E00B461341D040FE
:108610002024A21A91400843194610BD10B5002B22
:1086200008DA0024401C614192185B411A4301D1D1
:108630004008400010BDF0B51FB482B005460C00E4
:1086400003D0084606F002F802E005F0FFFF2030F4
:108650000246009021462846FFF7ACFF049B059A8E
:1086600004460F4618431143084314D018461043DC
:108670001BD0009840210A1A18460599FFF7AAFF57
:1086800005460E46009A05990498FFF793FF0843A4
:1086900005D0012004E02046394607B0F0BD002097
:1086A000C11705430E432C43374300990E986305C9
:1086B000401A7905E40A00220C43FD0A0A3002D56B
:1086C00000200146E9E70105101969410C9C0D9D48
:1086D00000196941FFF7A2FFDFE70000064C012502
:1086E000064E05E0E36807CC2B430C3C984710345A
:1086F000B442F7D3FFF7E8FC18A3020038A3020046
:1087000070B58C180578401C6B075B0F01D103789E
:10871000401C2A1106D10278401C03E006780E7036
:10872000401C491C5B1EF9D12B0705D40023521EA7
:108730000DD40B70491CFAE70378401CCB1A921C2D
:1087400003E01D780D70491C5B1C521EF9D5A14237
:10875000D8D3002070BD0000044802680021002A20
:1087600003D001220160024842607047007100405E
:1087700000700040F0B50E4601468DB0FF3107464F
:10878000E531154668460C9100F05EF91C46103C38
:108790002AD4314608A800F057F908A80FC8079353
:1087A00004AB07C304A9384600F066F800990498A2
:1087B000103C484000BA286001990598103648409E
:1087C00000BA686002990698484000BAA860039908
:1087D0000798484000BAE86008A80FC803936B46A2
:1087E00007C31035002CD4DA08A90C9800F02CF936
:1087F0000DB0F0BDF0B5054600881435800032E0BC
:108800002C681A4B1A4E610031402246E609DF09F6
:108810001A403E40921B174EFF43324051400E46D5
:108820004A001E403A40F709F61B124F3E40724084
:1088300017461F400E4B56001E40FB09FB1A0D4FFA
:108840003B405E400B4674405340734061401826E5
:10885000F141594062401023DA414A400821CC419D
:10886000544010C5401E0428CADCF0BD80808080C2
:10887000FEFEFEFE1B1B1B1BF0B50E4695B00188CD
:10888000079109010F1804201437810089198039D4
:108890003F1FCA6F3B685A40CA67401EF5D18FE040
:1088A0000423481E1090D81C8007000F3058010E7A
:1088B00047484068425C991C8907090F71580902B2
:1088C000090E415C0491591C8907090F715A09046A
:1088D000090E455C9907090F715C445C1099059875
:1088E00088424FDA049910464840039000F030F96E
:1088F0000499069069400846119100F029F9049006
:108900002846604000F024F908902046504000F0CE
:108910001FF9139004990698484000F019F90B903C
:1089200004990898484000F013F90B990A904840C0
:1089300000F00EF9844611990B9861404140604661
:10894000414006986A4041400A9862404240604671
:10895000424004984240039844400B98444060468B
:10896000444008984440039845400A984540604672
:108970004540139845400806110408432102084366
:10898000284306E004991006090408432902084315
:1089900020439A000CA951188039C8675B1E82D108
:1089A00004200CAA81008B18803B3F1FDB6F3C68C2
:1089B000891963408039CB67401EF3D10598401C6C
:1089C00007990590884200DA6AE715B0F0BD00000B
:1089D00000200020F0B5C1B002F0C2FF194BC11D4C
:1089E000F93103C3002201216C46FF27CE091C3751
:1089F000A1544D007E4375406940521CFF2AF4D9B2
:108A0000632500230570FF27F91A615C0A020A43F7
:108A100011095609714096097140D60971405140BB
:108A2000E25C69405B1C8154FF2BEDD305490020BB
:108A30000A684968135CC854401CFF28FAD941B041
:108A4000F0BD0000002000200A6812BA02604A68E7
:108A500012BA42608A6812BA8260C96809BAC160F3
:108A600070470000FEB505460C463748FF210090D0
:108A70001E46F5312846FFF7DAFB002E11D0012EF5
:108A800061D10E2028802146284608261031143056
:108A9000FFF7DAFF2146281DFFF7D6FF6E80374625
:108AA00044E00A2028800426F4E7B80001902C58FE
:108AB00031463846FFF780FB002918D12348E2B23F
:108AC0000068825C13022204120E825C12041A43B4
:108AD00023021B0EC35C1B061343220E805C009A0C
:108AE00018431278140644400098401C0090082E49
:108AF00013D1042911D1154822040068120EE1B2E5
:108B0000825C415C12020A432102090E415C0904A5
:108B10001143220E805C04060C43B81B80004019F0
:108B200041680198614040197F1C4160288880009D
:108B3000001DB842B9DC0020FF350146E135401C7C
:108B400029711028FBDBFEBD4870020000200020C8
:108B500001064000002901DA1B214840C0B27047DD
:108B60004018704710B50CF06FF910BD0648817AB7
:108B7000022907D0C17C142902D8807C782801D929
:108B800000207047012070474825002007498A7A55
:108B9000022A09D00A46A83A127E002A04D18A7C09
:108BA000782A01D8101888747047000048250020E2
:108BB00010B501F085FF002810D101F08FFF0028CB
:108BC0000CD100F033F80D49002802D00020C882F3
:108BD00004E0C88AFF212D31884201D2002010BD57
:108BE00000F007F900F05EF9002802D0072000F03D
:108BF0002DF901F0B3FC012010BD0000402500203C
:108C0000094800B5002201468273C0318A81CA82B8
:108C100000F00CF8002804D002208874CA768A7606
:108C200000BD8A7400BD0000802400200448006953
:108C3000800CC007C00F01D0002070470120704792
:108C40000005005000B5FFF7F1FF002803D10448EC
:108C5000807B132801D9002000BD012000BD000049
:108C600080240020F8B5164C00F07CFA0146E07A2A
:108C7000002813D0012814D0022812D10D4607F085
:108C800091FD2074617C26460027C83E00290FD044
:108C9000677401F015FF002804D005E0204605F0B8
:108CA00057FDF8BD207C06E0A07A022805D005E03B
:108CB000B17B884202D2B073F6E72560E772F8BD57
:108CC0004825002010B501F00DFD10200CF096F89D
:108CD0000349C881012048760220C87410BD0000F5
:108CE0004025002000B50246FFF7A0FF002808D06D
:108CF00004498889801880B2034A8881904200D94B
:108D00008A8100BD40250020302A000010B51F4B8D
:108D1000002286B000282FD016292DD14178E129D4
:108D20000BD0E22904D0E32904D0E42904D023E0C5
:108D3000012202E0022200E00322142469460C8290
:108D40000024D100009401940294C91803948A8BE2
:108D500069460A8001228A708C8004A9801C0291D5
:108D60000390988A6946A6DF08494031002806D05A
:108D7000074A904200D10C77002006B010BD087F52
:108D8000012801D9401E08770120F6E7D0270020EE
:108D90000430000070B5FEB015460E460446FFF7DD
:108DA00019FE00231A4621466846FFF75BFE684617
:108DB000FFF720FD40232A4631466846FFF7DAFCDC
:108DC0007EB070BD30B50C468DB015460146102200
:108DD0006846FFF705FA1022214604A8FFF700FABB
:108DE00068464DDF1022284608A9FFF7F9F90DB0B3
:108DF00030BD704710B50878152818DD212804D03B
:108E0000222808D0232812D10AE010000FD03921DF
:108E100008A2090109E0100009D006A20A4904E0ED
:108E2000100004D0084903A2C91C09F0C6FF0020A5
:108E300010BD00002E2E5C736F757263655C6274EA
:108E40006C652E6300000000930300007047000073
:108E500070B50646FFF7EAFE00250C4C002809D144
:108E6000FFF7F0FE002805D001F02AFE002801D00F
:108E7000657770BD002E01D0A57701E00120A077B5
:108E800001F046FC0520607770BD0000102800202E
:108E90001CB50446684666DF68468088207001205D
:108EA0001CBD00000348407F042801D0002070470B
:108EB00001207047102800200348407F002801D07F
:108EC00000207047012070471028002070B52A4A02
:108ED0000346008811460025403117281AD01ADCB5
:108EE000012822D0102825D0112813D1681E908285
:108EF00001201446487708F063FF00F041F802F0C3
:108F00008BFBA07D800705D402F0BCFC002801D0BB
:108F100004F0CEFA70BD19281ED03928FAD0502896
:108F2000F8D1184608F0B0FA70BD087F1A7A801898
:108F3000087770BD98889082042014460E464877C2
:108F400000F010F92060F57700F00CF90B4908608B
:108F500020465C3062DF70BD98790028FBD1487FE5
:108F60000528F8D1887F022803D00020FFF770FF82
:108F700070BD4D7770BD0000D027002080240020F8
:108F800005480021017641768181C1810348017A3B
:108F90004906490E01727047D02700208024002026
:108FA00038B51E4C08F00CFF20465C3062DF012112
:108FB000684681701F21C9430180224612326946EA
:108FC0000120A0DF002827D1012115480AF052F81E
:108FD00013480221401C0AF04DF811480321801C5F
:108FE0000AF048F80E480421C01C0AF043F80C4867
:108FF0000521001D0AF03EF809480621401D0AF02F
:1090000039F807480721801D0AF034F80448082180
:10901000C01D0AF02FF8002038BD0000D027002026
:10902000E1FF000010B5104804464034617F0B009A
:1090300005F023FB050F040F0F120F00C08A002854
:1090400001D006F03FF9A07F002803D00020FFF7F1
:10905000FFFE10BD0120FAE701F032FD0028F8D034
:1090600000F004F810BD0000D027002070B500F01B
:1090700079F80546314C02F005FC002807D030494C
:1090800020684018A84257D204F012FA54E0A07E9B
:109090000A2802D901F0F4FB4EE02A492068401862
:1090A000A84203D2FFF76CFF01F0EAFB2648007AE2
:1090B000000641D5E089A189884205D20120C0037C
:1090C00000F046FA00280DD1607E217E884225D22C
:1090D000208A01263603FF2806D8304600F06EF9B4
:1090E000002801D0012070BD607E401CC0B26076B7
:1090F000217E88420DD2002020820122052113A06A
:1091000000F018FFA060002808D0304600F056F9A3
:10911000E8E7012205210DA000F00CFF7D21606829
:10912000C9004018A84207D201F0AAFB00F0FEF8DF
:109130006560A07E401CA076002070BDD027002076
:1091400030750000204E00008024002065706F63A1
:10915000680000000248007F002800D0012070470E
:109160001028002010B503F0DFFF10BD70B5214AB4
:1091700001781346A03B0902198044781E4D091955
:1091800089B200241980A9420DD1146054608178FD
:10919000C01C9970002903D0012903D109F0F8FB04
:1091A00000F072F870BD144D6D1CA9420FD114600F
:1091B0005460C1780902596002791143090259606B
:1091C0004279114359608179997000220DE00A4A71
:1091D000921C914202D0521C9142E3D1C1780A0202
:1091E00001791143427909020A43811D184609F0A9
:1091F00013F970BD04270020E5FF0000F8B52048F2
:109200000090051D80792F46401CA870FF20E87053
:10921000E2202871A87868718037072078620020E2
:10922000A871E871072129722E46A036F861707383
:10923000B8622C4630700B221934025501216A7035
:109240002970009801700F48827F0A55C27F032160
:109250003173022002550B49E01C04221431FEF741
:10926000BFFF072030732846102221460930FEF741
:10927000B7FF10207073F861009802210170F8BDEB
:1092800088250020A0270020F8B5154E102134466F
:10929000FF340D34A0782746401CA070FF20B13069
:1092A0008151FF20E070E1202071A0372546012286
:1092B00019353A73002149553146681C0922083195
:1092C000261FFEF78DFF0A223A73002060700120EE
:1092D0002070022030702946601DFEF781FFF8BD26
:1092E0008024002070B5104B10221846FF300D303E
:1092F0008178FF24491C8170FF21B131CA50FF21C0
:10930000C170E1210171B9340122E2540146002605
:1093100018251931755445700270031F02241C7002
:10932000401DFEF75DFF70BD8024002070B5204C0D
:109330002546FF35C5352879FF34CF34002835D18F
:10934000FF202070E12060701620A0701848803047
:10935000416A090EE170416A090C2171818C090A88
:109360006171808C1249A0710A6C486C8018020EE1
:10937000E271020C2272020A6272A0720D48028827
:109380001212E27200782073C86C0009020A62733C
:10939000A073886C0009010AE17320740648407DBF
:1093A000607404F093F9A0740120287170BD00006E
:1093B00080240020802B0020602A0020F0B593B08C
:1093C000064601A8009005A80B9001A80A905E4CE3
:1093D00005A80D902079002802D16079002802D0DC
:1093E000012013B0F0BD0D225848920185180322C8
:1093F0001202A17980180E90002923D000271CE0CA
:10940000288C00010C90B0421AD20E980422816D73
:109410000C98081801A900F049FE019804224000A8
:10942000400801900E98816D0C98081801A900F071
:1094300097FE288C401C28847F1C2089B842DFD8E6
:109440000020A071288C0701B74201D30020C8E793
:109450000120208116E00E981022806D0099C0191D
:1094600000F024FE00980078FF2806D0019800281C
:1094700003DA40004008019006E0288C401C80B2CE
:1094800028840701B742E6D3B7424CD2288C0501A5
:1094900046E00E981022806D0B99401900F006FEF0
:1094A0000B980078FF283ED0059800283BDA400052
:1094B000400801990590884235D90D98017A0A989B
:1094C000007A81422FD10D98417A0A98407A8142E0
:1094D00029D10D98817A0A98807A814223D10D98FA
:1094E000C17A0A98C07A81421DD10D98017B0A98F1
:1094F000007B814217D10D98C1880A98C0888142AB
:1095000011D10D98417B0A98407B81420BD10D9877
:10951000817B0A98807B814205D12089401C208173
:109520001035B542B5D32389012B01D9092201E0B9
:109530000023082220460A300A9906F01DFE012069
:10954000207160714CE70000442600208024002038
:10955000F0B591B0064601A8079008A80C9001A8A4
:109560000690574C08A80D902079002802D1607908
:10957000002802D0012011B0F0BDA079514D002883
:109580001ED0002717E0E88B0001B04216D204225B
:109590001303C01801A9009000F040FD01980422B7
:1095A00040004008019001A9009800F09DFDE88B63
:1095B000401CE8837F1C2089B842E4D80020A071B9
:1095C000E88B0701B74201D30020D4E701202081B6
:1095D00015E0102290023818079900F01FFD079837
:1095E0000078FF2806D00198002803DA40004008E0
:1095F000019006E0E88B401C80B2E8830701B74287
:10960000E7D3B7424BD2E88B050145E01022900228
:1096100028180C9900F002FD0C980078FF283ED025
:10962000089800283BDA40004008019908908842D9
:1096300035D90D98017A0698007A81422FD10D987C
:10964000417A0698407A814229D10D98817A06980C
:10965000807A814223D10D98C17A0698C07A8142DE
:109660001DD10D98017B0698007B814217D10D9882
:10967000C1880698C088814211D10D98417B069817
:10968000407B81420BD10D98817B0698807B814283
:1096900005D12089401C20811035B542B6D32389DD
:1096A000012B01D9092201E00023082220460A30BB
:1096B000069906F061FD0120207160715AE70000F3
:1096C00044260020C027002010B5002405F0AEF984
:1096D000002803D0641CE4B2052CF7D310BD0000B1
:1096E000F0B5044610460022084E0AE02578070A25
:1096F0007D406D00755B00024540521CA8B292B2DD
:10970000641C8A42F2D35840F0BD0000F47102009C
:1097100010B50C4608F0C6FE04480179024649001F
:10972000303254520121417110BD000068210020E7
:109730000348132100888903C001081A70470000FC
:109740006821002070470000F8B52B4A2B4E907816
:10975000134685011446D1781B88303410E04F0041
:10976000E75BB7420BD126484E00A05368185B1C3C
:109770001380491CD170012180B25171F8BD491C80
:109780004029ECD31321C9018B4233D01A494979BE
:10979000002903D01849303100F0CEFC0027164CC8
:1097A00025E0A078884225D2401C1349C0B240353C
:1097B000A070ADB2303100F05FFC0F4800213030B6
:1097C0004A00825AB2420ED10B4A0D484B00303249
:1097D000D05222886818521C2280491CE170012155
:1097E00080B26171F8BD491C4029E9D37F1CE16852
:1097F000B942D6D80020F8BD68210020FF7F0000C4
:10980000FF3F000010B508F04DFE03480249007903
:1098100040003031085A10BD68210020F0B5194CC5
:10982000A1B0A18BA069FEF7B1FC002526462080DF
:109830003036154F17E06946284600F01DFC1148E8
:10984000802269463030FEF7CBFC00204100715A7F
:10985000B94202D02188491C2180401C80B2402896
:10986000F4D36D1CADB2E068A842E4D800250549E8
:10987000A5703031284600F0FFFBE570657121B01E
:10988000F0BD000068210020FF7F000070B5C0B06F
:10989000344C6946002000F0D9FB802020816D46C1
:1098A00020A9032000F0D2FB3FA8023001F0D8F835
:1098B0002D49002688424CD12846363001F0D5F893
:1098C0002A490002884244D102A8033001F0C8F8B6
:1098D000218988423DD105A8023001F0C1F8E0603D
:1098E0006846007CA077012833D16846407BA0837E
:1098F00004A8013001F0B4F8208404A8033001F07A
:10990000AFF8608403A8023001F0AAF8A084012017
:1099100021890004FEF73AFC0546608CA84218D362
:10992000A18B401BFEF732FCE0840220A071A561F0
:10993000A08C2061208C00280CD068086061E08C2D
:1099400021894000401E0818FEF720FCE16888428B
:1099500002D9002040B070BD0020C043A062A6859F
:109960000120F7E76821002055AA00000046415475
:1099700010B530210248FEF75AFC00F003F810BD84
:1099800068210020F0B5A7B05A4C02206D46A071A6
:1099900080212846FEF74BFC2946012000F0BDFB44
:1099A0002946022000F0B9FB80262681668101202D
:1099B000A0831320C00160840427F000A7842084C2
:1099C00041100F20C001E0841E20E0600120A0773C
:1099D0002761A16100026061F02280212846259262
:1099E000FEF725FC0B2244A12846FEF7F9FB694649
:1099F000CE720020087301224A738F73C8730A74F1
:109A000048748F74CE7409220A75259A4A753F22CC
:109A10000A764876FF228A76C8760877487788776C
:109A2000C8770AF0ADFE08A9C871020A0A72020CD2
:109A30004A72000E8872A08969468875000AC87546
:109A400008A90E7129208871284613222DA12B30D8
:109A5000FEF7C6FB2946002000F05FFB218928465F
:109A6000FEF7E5FB552018A98877AA20C877294674
:109A7000032000F052FB00207F26249035E0FF22D7
:109A800080212846FEF7CCFB01202E54801C802824
:109A9000FBD3FF212598C943014329701E4A010ABF
:109AA00011436970010C12121143A970000EFF21BD
:109AB0000843E8702946002000F03EFB01270EE035
:109AC000FF2280212846FEF7ABFB01202E54801C8C
:109AD0008028FBD32946384600F02EFB7F1CE06827
:109AE000B842EDD82498401C2490A17F8142C6D86A
:109AF00027B0F0BD68210020EBFE904D53444F533A
:109B0000352E30004E4F204E414D4520202020461E
:109B10004154202020202000FFFFFF0010B5054801
:109B20004179002904D003498078303100F004FBEA
:109B300010BD000068210020F1B50026A8B0354610
:109B400000F07EF802F00CFF074600212898002F55
:109B5000016001D0002415E0002029B0F0BD20A94B
:109B6000204602F0B7FE00280AD0761CB6B269463D
:109B7000204602F0C3FE6846FEF764FB451908352F
:109B8000641CA4B2BC42EAD3289805603046E4E7DE
:109B900070B5A8B0064600F053F802F0E1FE0500EB
:109BA00018D0002414E020A9204602F093FE0028DB
:109BB0000CD06946204602F0A1FE31466846FEF709
:109BC00048FB002802D1204602F066FE641CA4B2C5
:109BD000AC42E8D328B070BD10B504002DD0E07CB5
:109BE00000282AD1A07C002802D0204608F0E6FFF9
:109BF000E08902F091FEE2890146104602F0DEFEA5
:109C0000218AE08902F0C2FE0C48008E02040B4853
:109C10002030817C11430A02C17CE089114302F0AB
:109C2000C1FEE089216802F0FDFDFFF777FF02F039
:109C3000D1FE0020207502F079FE10BD0025002025
:109C400010B50548007D002805D00348FFF7C4FF84
:109C5000002001F04BFE10BD18220020002803D088
:109C60000068002800D0012070470000F0B5CDB09A
:109C70000D4624A9019104A900910146802204A85F
:109C8000FEF7AEFAFFF7DCFF324C0026E574012D3B
:109C900026D0FFF7C3FDFFF74BFD0521C90288421F
:109CA0004CD3FFF751FD050048D0FFF74DFD694645
:109CB0000881020044D02946009802F0BFFD411CF3
:109CC00040D0711E2182A674208169460989618174
:109CD000A1812660E081012020751E484DB0F0BDB5
:109CE00002F03EFE070029D0002510E0A8B244A9EA
:109CF00002F0F0FD002809D0A8B2019902F0FEFDA3
:109D000000990198FEF7A5FA002802D06D1CBD420B
:109D1000ECD3BD4212D2A8B2E08103AA02A902F09C
:109D200025FE8020A074E08920816846008960813A
:109D3000A0810398206060602675CEE70020CDE703
:109D4000284604E02846FFF7FDFC68460089FFF737
:109D5000F9FCF3E718220020F8B516460F46050077
:109D600007D02868B04200D2C6B2A87C802802D0B2
:109D700004E00020F8BD284608F02AF8A87C1C4919
:109D80008219802A09D2411832463846FEF728FA4D
:109D9000A87C34468019A8741EE08022121AD4B21E
:109DA000411822463846FEF71BFA381900901BE08E
:109DB000301BC7B2802F00D380273A460C49009849
:109DC000FEF70EFAE019C4B20098C0190090802F77
:109DD0000AD0AF74B442EBD32868A04200D2C4B218
:109DE000001B28602046F8BD284607F0F1FFF1E788
:109DF000B0220020F8B516460F46050014D02A8A76
:109E00003146384603F000FA2882A87C1F4982199F
:109E1000802A0BD2401832463946FEF7E1F9A87C79
:109E200034468019A87427E00020F8BD8022121A59
:109E3000D4B2401822463946FEF7D2F938190090BC
:109E40008020A874284608F0B9FE002812D113E03B
:109E5000301BC7B2802F00D380273A460B480099A9
:109E6000FEF7BEF9E019C4B20098C0190090802F27
:109E700004D0AF74B442EBD32046F8BD8020A87460
:109E8000284608F09BFE0028F4D1F5E73022002098
:109E9000F7B5A8B00E460024FFF7D2FE02F060FD31
:109EA0000746002542E06946284602F013FD0028D7
:109EB0003AD02898844235D1019808AF010E2A98EB
:109EC000315401982A9C000C641C30550198641C84
:109ED000000A3055641C0198305568460089641C9E
:109EE000000A305568460089641C305539462846BA
:109EF000641C02F003FD3846FEF7A4F9401C85B24D
:109F00007F20001B80B2854200D90546002078558D
:109F10003555641C30192A463946FEF761F9601937
:109F20002BB0F0BD641CA4B26D1CADB2BD42BAD35F
:109F30002A98F5E7F7B5AAB00020009001200F4657
:109F40000190FFF77DFE02F00BFD050024D002AE6C
:109F500000241FE0A0B222A902F0BCFC002818D007
:109F6000A0B202A902F0CAFC002005E02A99325CE6
:109F7000095C8A420DD1401CB842F7D32C980028C6
:109F80000DD0019800280AD0A0B202F085FC002074
:109F90000190641CAC42DDD300982DB0F0BD0121CE
:109FA0003046FFF763FE002805D081890122C901F0
:109FB000120489180091FFF70FFEEDE770B5A8B005
:109FC0000646FFF73DFE02F0CBFC050014D000244E
:109FD00010E0A0B220A902F07DFC002809D0A0B2B8
:109FE000694602F08BFC31466846FEF732F90028DC
:109FF00005D0641CAC42ECD3002028B070BD012019
:10A00000FBE7000010B518210348FEF710F9FFF731
:10A0100005FC02F0EFFC10BD1822002070B50D46C3
:10A020000446C1091646042000F0BCF8002807D0F9
:10A030001320800320183246294601F041F870BDF4
:10A04000FF2280212846FEF7EBF870BD70B504466C
:10A050000D462146002000F0A5F8002805D0E001BB
:10A060008022294601F02CF870BDFF22802128466D
:10A07000FEF7D6F870BD000070B504460D462146C7
:10A08000012000F08FF8002808D0074880220069DE
:10A0900029460019C00101F013F870BDFF2280218C
:10A0A0002846FEF7BDF870BD6821002010B501F00C
:10A0B00007F810BD70B504460D462146022000F099
:10A0C00071F8002808D00748802240692946001905
:10A0D000C00100F0F5FF70BDFF2280212846FEF789
:10A0E0009FF870BD6821002070B50E460446C10976
:10A0F000A0B01546042000F055F800280BD02A46E1
:10A1000031466846FEF76CF81320800320182A4673
:10A11000694600F0F2FF20B070BD70B504460D46F0
:10A120002146002000F03EF8002804D0E001802203
:10A13000294600F0E2FF70BD70B504460D46214689
:10A14000012000F02FF8002807D004488022006981
:10A1500029460019C00100F0D0FF70BD6821002021
:10A1600030B5A1B0054614466846FEF739F82246D8
:10A170006946284600F0C1FF21B030BD70B50446E5
:10A180000D462146022000F00DF8002807D00448B3
:10A190008022406929460019C00100F0AEFF70BD61
:10A1A0006821002010B5030004F067FA0504070ACF
:10A1B0000D10210004290DD219E0FC290AD216E065
:10A1C000FF2907D813E00F20C00101E00120400261
:10A1D00081420CD300F074FC002801D0002000E084
:10A1E000012000F00EF803F045F9002010BD012019
:10A1F00010BD1321890310B54018032100F067FF3B
:10A2000010BD70B5054600F014F80446284600F06D
:10A2100003F8001980B270BD014610B50020002976
:10A2200006D0132110248903204604F0A1FC204607
:10A2300010BD10B54C240021204604F099FC2046A6
:10A2400010BD000070B504460D4621460320FFF7FF
:10A25000A9FF002808D007488022806929460019F4
:10A26000C00100F02DFF70BDFF2280212846FDF7C0
:10A27000D7FF70BD6821002070B504460D46214609
:10A280000320FFF78FFF002807D004488022806951
:10A2900029460019C00100F030FF70BD6821002080
:10A2A000FFB58DB0002408940E98FDF7CBFFC0B227
:10A2B0000A900E9809900F9800260B903746354665
:10A2C0000998FDF7BFFFC0B210E00999495D203938
:10A2D0005E2903D8761C6D1CF6B2EDB20999495D72
:10A2E000C90903D07F1CED1CFFB2EDB28542ECD34F
:10A2F0000B98102807D0082809D0002502A90020B3
:10A3000004AE099196E0F0003901401800E0F00039
:10A31000C5B2F3E70E990B5C194620395E294AD87D
:10A320000F98102802D0082828D01DE04A481B01A9
:10A330001818FF38FF3810216A46023801F012F869
:10A340001098012814D0E10008980822000109188B
:10A350000D98081807466946FDF742FF38468030D9
:10A3600008220999FDF73CFF641CE4B208985EE0FE
:10A370008020401B4010E1004118E5E717208003D2
:10A38000DB001818FF3808216A46013800F0EAFFA0
:10A390001098012806D006200D9960434018062227
:10A3A0006946DFE78020401B411006206043091802
:10A3B0000D980818F3E7D90940D00E99274F0818CF
:10A3C00020218C4619070B0C417880788906090DED
:10A3D00080061943800E0843010A0B464E3B6A462D
:10A3E000C0B2522B01D3602100200902081840019D
:10A3F0002721C0198903401A614600F0B3FF109865
:10A40000012820D0E10008981022000109180D98B9
:10A41000081807466946FDF7E3FE384680301022EB
:10A420003146FDF7DDFE0898401CC0B2089041009F
:10A43000401800190A99884200D26BE7802D08D88D
:10A44000284611B0F0BD8020401B4010E1004118AB
:10A45000D9E7FF20F5E7000000C3050000C90500AB
:10A460000348C16B002901D00021C163704700007F
:10A470004061004010B52F4802240460001D0460B4
:10A480000121204606F072FA2A480C300460001DB3
:10A490000460001D04600121062006F067FA012116
:10A4A000072006F063FA23482030046000210920C9
:10A4B00006F05CFA1F4828300460032211460B2086
:10A4C00006F046FA1B4830300460001D0460001D91
:10A4D0000460001D046000220221102006F038FAFA
:10A4E00014484430046003220021122006F030FAA0
:10A4F0000121132006F03AFA03221146152006F036
:10A5000027FA0121162006F031FA0A485C3004606F
:10A5100008486430046007486C300460001D046023
:10A52000001D0460001D046000211F2006F01EFABB
:10A5300010BD00000007005001200449C00748601A
:10A540000321062033DF06202EDF70470063004022
:10A5500010B500F0C7F903F063F810BD10B5002185
:10A56000142006F003FA1E49002088711D490220BC
:10A570000860091D0860091D08601A49103108604B
:10A58000091D0860091D0860091D0860091D086093
:10A59000091D0860091D0860091D0860091D086083
:10A5A000091D0860091D0860091D0860091D086073
:10A5B000091D08600B4958310860091D0860091D14
:10A5C0000860091D0860091D0860091D0860091D53
:10A5D0000860091D0860091D0860091D086010BD9C
:10A5E000802400200007005010B50121142006F03F
:10A5F000BDF902490120887110BD000080240020AF
:10A600001CB50449086A496A0090019168460AF03D
:10A61000D5FB1CBD7471020001490220086070471F
:10A620003C07005010B501210F2006F09FF910BD26
:10A630001CB5002812D0012810D10949094C08691D
:10A64000496901910090A07C002807D068460AF073
:10A6500039FC0020A0740120FEF784FA1CBD000024
:10A6600074710200802400201CB5002811D001283C
:10A670000FD10849084C8868C96801910090A07CF6
:10A68000002806D168460AF035FC0120A074FEF7C8
:10A6900069FA1CBD747102008024002000B587B0E7
:10A6A000002819D00D49002203C90490CD20C00410
:10A6B00005910290182000901A200190032069460D
:10A6C000087304A80AF04AFC04A80AF013FC044921
:10A6D00001208874FEF746FA07B000BD74710200CD
:10A6E000802400201CB504498869C9690090019143
:10A6F00068460AF063FB1CBD7471020010B50028A7
:10A7000001D0012100E00021092006F02FF910BD41
:10A7100010B517499AB003C9199118900624302131
:10A720006846FDF784FD6846C4700224048218A8B8
:10A73000059030210CA8FDF77AFD08A804740CA937
:10A74000684608F069FC7D24E400002803D0204618
:10A75000FEF708FA35DF04F075F8064873DF0028C5
:10A7600003D02046FEF7FEF935DF1AB010BD000019
:10A770009C710200042400207FB505460AF026FEE5
:10A780007D24E400002803D02046FEF7EBF935DFF6
:10A79000002D01D0012000E000206946087303A8C5
:10A7A00009F0DEFC002803D02046FEF7DBF935DF98
:10A7B00001A805210130FDF73AFD694648790122DB
:10A7C0001043E1210840DF210C3008406946487100
:10A7D000072088711020C871064800900A71064849
:10A7E00009F0E4FD002803D02046FEF7BBF935DF71
:10A7F0007FBD0000F58D01000820002010B5094C38
:10A80000FEF7B0FC20464030C17F002908D000216F
:10A8100081770320FEF71AFBE08A02210843E082D9
:10A8200010BD0000D027002010B5FFF7DDFE03F0BB
:10A830002FFA04F039F8FFF71DFE00220E491046EA
:10A840000BF07EFA0D4901204874FFF727FF00F056
:10A850005BFC02F0BFFCFFF76FFE02F09DFAFEF713
:10A86000CFF902F059FE00F0E5F84B20C000FEF7EA
:10A8700079F902F031FF10BD995B020080240020BD
:10A880007CB5154CFEF76EFC054600F0FBFF00287A
:10A890000AD120464030C17F00291AD10F49104B00
:10A8A0000A68D218AA4201D900207CBD0D60C822D6
:10A8B00069460A80FF2241324A8004228A804B2264
:10A8C000D200CA80002E04D10121C17720465C301D
:10A8D00062DF01207CBD0000D02700208024002002
:10A8E0001027000070B51B48194C00690025400D69
:10A8F000C007C00F00D001252078A84226D0FEF75F
:10A9000031FC0646A80025700019466002F054FC90
:10A910002078002818D1E66000F0D2F8002813D083
:10A9200000F034FF0C490120C872FEF71BFC0B49F4
:10A93000886303F0B1FA002802D000210A2001E068
:10A940000021072003F062FC012070BD002070BDD3
:10A95000C02B002000050050402A002000280020C5
:10A96000F8B57D202F4C40010090617820782E4F63
:10A9700001262E4D814219D1002819D100F0A0F8EE
:10A98000002812D0FEF7EEFB6168009A401A904250
:10A990000BD37D20000108186060E07C401CE0744F
:10A9A000AE720920E872FEF79DFCF8BD002814D0B5
:10A9B000A0686146091A0A29F7D36168401A217C08
:10A9C00000292AD0B84228D200202074607C401C84
:10A9D0006074AE720720E872F8BDFEF7C3FB6168D1
:10A9E000401A0A28F8D3B84215D3002060702074AA
:10A9F000A07C401CA074AE720820E8720C488079DC
:10AA0000002805D0FF210A482D31C030C182F8BD91
:10AA100002F04EFDF8BD2674F8BD6670002020746B
:10AA2000F8BD0000C02B0020DC050000C02700207E
:10AA30008024002070B50948074D00690024400DAE
:10AA4000C007C00F00D001246C702C70FEF78AFB89
:10AA5000A1004919486070BDC02B002000050050BE
:10AA600041780078090208437047C1780A0281786A
:10AA700011430A02417800781143090208437047E4
:10AA800010B5074C0020FFF7B4FB01200003FFF7CF
:10AA9000B0FB0020207620606060A06010BD000048
:10AAA000A827002010B5054C0C2221460020FFF7F6
:10AAB000B5FA0020E0752076A07510BDA82700200B
:10AAC00004480549008D884201D1012070470020CB
:10AAD0007047000080270020A57F00000148007F0C
:10AAE00070470000A0270020F0B585B0FE4CFEF7AF
:10AAF00039FB0546022002F0D1FCFC48217E0246CB
:10AB00000A320392163201920D23F94A9B01D3189F
:10AB1000029319235B01D71803231B02D618403078
:10AB200000900B0003F0A9FD110A355B7685BDCEC0
:10AB3000FAF9F8F7F6F5F4F3F2F1F500EC48007ADB
:10AB4000810606D5EB4E01207561207620206075C8
:10AB500007E041060FD5E74E0520756120764020BD
:10AB600012E000F0FDFEFF30FF300230B0608030B8
:10AB7000F06005B0F0BD800708D5DE4EDE48756197
:10AB8000B0610D20207602207877EAE70020787700
:10AB9000EFE701203877B563D64EFF203070D348F9
:10ABA000756102F0EFFBD148D4491430F06103F035
:10ABB00039FD0A22CD49B068FDF712FBB0680621C5
:10ABC0000A3005F03DFAB1682C20887206F07AF957
:10ABD000B268F0681146FEF7F5F80220F9E0C349C3
:10ABE000C44D1931E9611022A86803F0FEFC0A2265
:10ABF0000399A868FDF7F4FAA86806210A3005F061
:10AC00001FFAA9682C2088720A46E868FEF7DAF86D
:10AC10000320DEE001992C204876B449B54D3A3145
:10AC2000E9611022A86803F0E0FC042020760020EF
:10AC300047E1022002F0D2FB002825D003F0A0FE5D
:10AC40000021AFA0FFF712F806465A22A749FFF7E6
:10AC5000D1F83046FEF7C0FF022002F01FFC0020B2
:10AC6000A44920760D61A24A0870137ADF252B4093
:10AC700013728880787F20288AD10120A075801ED9
:10AC8000E060FEF7BBFA74E79A498A88501C888016
:10AC90007D20C0008242F6D90B2020760E20E07580
:10ACA00067E7012038779248B563007A4006EAD515
:10ACB0000620207600218F48FF228170427081801B
:10ACC000456156E7022002F089FB002849D0894EF1
:10ACD0000025B5808FA0FFF771F9012808D00B205F
:10ACE000207675700320E075022002F0D7FB40E764
:10ACF000012188A0FEF7BAFF054640686228284671
:10AD00000DD0FEF769FF042019E044E136E119E1B6
:10AD1000D9E04BE1B1E06CE05DE045E02EE062227D
:10AD20007249FFF719F82846FEF756FF0198007898
:10AD30002C2803D1009840782C2804D00520E075F9
:10AD40000B202076D0E720226848B16803F028FC69
:10AD500006F0B8F8B268F0681146FEF71BF8072055
:10AD6000EFE764488188491C89B281807D20C0005A
:10AD7000814288D90B2020760F2090E75D4D10226C
:10AD8000A9685A480E46FDF72BFA5848202231464A
:10AD9000213003F005FC06F095F8AA68E868114632
:10ADA000FDF7F8FF082014E0524D1022A96803981F
:10ADB0000E46FDF715FA4D4820223146423003F089
:10ADC000EFFB06F07FF8AA68E8681146FDF7E2FF9E
:10ADD00009202076CDE64748102281680198FDF7CA
:10ADE000FFF90A20207602F025FF012000F0C2FDC5
:10ADF000BFE614213D4807F039FC3C4F2C20387544
:10AE000015252020395C2C2906D079556D1C401C55
:10AE1000C0B2EDB22D28F5D33648C580009802F0B7
:10AE2000B1FA142231480099FDF72EFA0004000C03
:10AE300005D03148F0620920E0750B20C9E70020F9
:10AE400001262C4B6D1EE9B298610EE07A5C303A17
:10AE50000B2A04D30A21E1750B21217607E0724306
:10AE600010180A225643491EC9B21529EED298611C
:10AE7000207E0B28AED00D20ABE71E4D00262E7095
:10AE80006E70022002F0AAFA002804D1A8887D2161
:10AE9000C900884214D9022002F000FB144826762B
:10AEA000017A9D22114001722E706E70AE800420D6
:10AEB000A075401FE060FEF7A1F903F061FD58E6C0
:10AEC000401CA88055E6012038770948B5638030DA
:10AED000406A306307488069F0621448308514483E
:10AEE00070850E20207625E0A82700201C24002055
:10AEF000802400200C200020FFFFFF7FA4710200AF
:10AF000073656375726974795F6465766963652ECC
:10AF10007478740073656375726974795F736572B0
:10AF2000766963652E74787400000000A57F0000C8
:10AF3000341200001F49BD22087A1040087202F046
:10AF40007DFE16E60F202076787F40280ED002285E
:10AF500012D00420A075F06AE060FEF74FF9FEF70A
:10AF600001F9154948610020387702E60220A075F2
:10AF7000114900204870EEE70320EBE70020FFF7BF
:10AF800038F90C2221460020FFF7AEF80298102174
:10AF90000170B563EDE50949B06B4018A8428ED247
:10AFA00002F086FA029900200870E2E50B20207674
:10AFB000112074E6802400200C200020881300005B
:10AFC00010B54721202007F08DF90120FDF7CAFDBB
:10AFD0000921212007F086F94021222007F082F97B
:10AFE0000021232007F07EF94821242007F07AF978
:10AFF0000821322007F076F90121332007F072F999
:10B00000262005F047FC2A21302007F06BF931207B
:10B0100005F040FC002010BD10B500F001F810BD97
:10B0200010B5214C607F002813D03F21382007F055
:10B0300059F930213A2007F055F910213B2007F04B
:10B0400051F90A213C2007F04DF920213D2007F05D
:10B0500049F90021322007F045F90021332007F09B
:10B0600041F94721202007F03DF90021212007F078
:10B0700039F9607F002801D0842100E004212220DA
:10B0800007F030F91821232007F02CF9482124205B
:10B0900007F028F999212E2007F024F90021252016
:10B0A00007F020F9002010BD6025002010B50F200A
:10B0B00005F0F0FB0148407810BD00001A31002077
:10B0C000134610B50A46194600F04CF910BD10B5EC
:10B0D000032905D0022907D0012908D0002909D069
:10B0E00000F078F8002010BD00F040F8FAE700F01A
:10B0F000A5F8F7E700F00CF8F4E7134610B50A4698
:10B10000194600F0E5F810BD10B500F0CBF810BD01
:10B1100030B5134D0024287885B0002802D02C705B
:10B1200000F0A4F900F0BAF90E49C7200870162003
:10B130000D4900230191049002940394012200948C
:10B14000084918460BF002F907F008FC2878002897
:10B1500003D10120287000F0EDF805B030BD0000EB
:10B1600030200020103100201A31002070B5164E1A
:10B1700004463078002586B0002802D0357000F0F3
:10B1800075F900F08BF9114852210170210C4170C2
:10B19000210A8170C47016200D490023019104908A
:10B1A0000295039504220095084918460BF0CEF845
:10B1B00007F0D4FB3078002803D10120307000F074
:10B1C000B9F806B070BD000030200020103100201A
:10B1D0001A31002070B5164E04463078002586B02E
:10B1E000002802D0357000F041F900F057F91148FD
:10B1F00020210170210C4170210A8170C470162039
:10B200000D490023019104900295039504220095B5
:10B21000084918460BF09AF807F0A0FB3078002890
:10B2200003D10120307000F085F806B070BD000039
:10B2300030200020103100201A31002070B5164E49
:10B2400004463078002586B0002802D0357000F022
:10B250000DF900F023F91148D8210170210C41703B
:10B26000210A8170C47016200D49002301910490B9
:10B270000295039504220095084918460BF066F8DC
:10B2800007F06CFB3078002803D10120307000F00B
:10B2900051F806B070BD00003020002010310020B1
:10B2A0001A3100200EB500F045F80749012008705A
:10B2B000684600F087F8694604480978C173694612
:10B2C000497801740EBD000030200020A024002029
:10B2D000F7B50F46164E0446C51930786D1E002886
:10B2E00003D00020307000F0C1F8200A290A0002C3
:10B2F0000902884203D139462046029A0DE0FF2117
:10B30000201A01310D1AA9B22046029A06F034F92A
:10B31000029A791B6019521989B206F02DF930781A
:10B32000002803D10120307000F004F8FEBD0000B9
:10B330003020002000B5094985B0B92008700020F0
:10B340001621074A0192049102900390034600904F
:10B35000012202490AF0FAFF05B000BD10310020B9
:10B360001A310020F7B5154D04462878002686B01E
:10B370000F46002802D02E7000F078F81048032104
:10B380000170210C4170210A8170C4700898042258
:10B3900001AC85C416210023049100960849184683
:10B3A0000AF0D4FF0AF046FD2878002803D10120D6
:10B3B0002870FFF7BFFF09B0F0BD0000302000206B
:10B3C00010310020F0B5174D06462878002485B0CE
:10B3D000002802D02C7000F049F813499020087022
:10B3E0004C708C70CC700C714C71162006210F4F74
:10B3F00000230391049002940122019700940A49CA
:10B4000018460AF0A3FF0AF015FD387930707879F4
:10B4100070702878002803D101202870FFF78AFF78
:10B4200005B0F0BD30200020103100201A3100207E
:10B4300010B50C4886B005210170AA21417000208A
:10B4400016210222084C04910290034601940392B3
:10B45000009004490AF07AFF0AF0ECFC607806B02C
:10B4600010BD0000103100201A31002000B509493C
:10B4700085B0AB20087000201621074A0192049184
:10B480000290039003460090012202490AF05EFFF9
:10B4900005B000BD103100201A31002010B50E4853
:10B4A0000024017886B0002902D00470FFF7DEFF87
:10B4B0000A490620087016200949002301910490CA
:10B4C0000294039401220094044918460AF03EFFB6
:10B4D00007F044FA06B010BD3020002010310020E3
:10B4E0001A310020704770470021017008467047EC
:10B4F0000020704710B50948007F062809D002F0E7
:10B50000CBFC002807D105482030C0780A3807282E
:10B5100001D8012010BD002010BD0000202A00200D
:10B5200010B5002806D0012801D0022801D100F072
:10B5300073F810BD084600F00BF810BD0348002159
:10B54000C176032141770121C1777047A02B0020EC
:10B5500010B508490022CA760122012807D04A778F
:10B560008877CA770449062002F062FE10BD0323E3
:10B570004B77F5E7A02B0020B80B000070B5FDF766
:10B58000F1FD244C0546E07F002801D001F014FEB7
:10B59000E27F204E00200221203E130003F06DF8D0
:10B5A000060604070D1A2B06E177207770BD0120EF
:10B5B0007563FFF7A3F8032027E0706B6430A8429F
:10B5C000F4D20020FFF79AF80420E0777563E07E5C
:10B5D000401C1DE0706BFF309130A842E6D2E07E47
:10B5E000032806D30520E077207F401C2077756371
:10B5F00070BDE17770BD7D23726B1B01D218AA422A
:10B60000F8D2227F637F9A4201D3E07770BDE17761
:10B61000E07670BDA02B002010B503490020C8774C
:10B62000FFF76CF810BD0000A02B00208307FF225D
:10B63000DB0E9A408907090E994000280BDA0007B3
:10B64000000F0838830808489B001818C369934303
:10B650000B43C3617047830804489B001B1818689C
:10B66000904308431860704700ED00E000E400E0FC
:10B6700070B5054600242046B030C0B206F04CFE3E
:10B68000102006F049FE002006F046FE1F2009F0BB
:10B690002FFD2946802006F00DFE641CE4B28035A3
:10B6A000042CE8D370BD10B50446AE2006F034FE7D
:10B6B000D52006F031FEC12006F02EFEA82006F0AF
:10B6C0002BFE1F2006F028FEAD2006F025FE0020F0
:10B6D00006F022FE202006F01FFE022006F01CFECF
:10B6E000D32006F019FE002006F016FE402006F0DA
:10B6F00013FE8D2006F010FE8D2006F00DFE1420A6
:10B7000006F00AFEA02006F007FEC82006F004FEA0
:10B71000DA2006F001FE122006F0FEFD204600F0C1
:10B7200019F8D92006F0F8FD222006F0F5FDDB20FF
:10B7300006F0F2FD002006F0EFFDA42006F0ECFD7F
:10B74000A62006F0E9FD10BD01498020C8607047C1
:10B750000005005010B50446812006F0DDFD2046AE
:10B7600006F0DAFD10BD10B5002801D0AF2000E0D2
:10B77000AE2006F0D1FD10BD03480621017102493B
:10B7800000203039C8777047502A002010B5084C87
:10B79000FDF792FB002802D00120FDF759FB20792C
:10B7A000002801D0002010BD0120207110BD000034
:10B7B000502A002070B52E4CFDF7D4FC05462079A8
:10B7C000002801D001F0F8FC20790126030002F0E6
:10B7D00054FF083C050D1C213C3D473CFDF7C2FCD5
:10B7E0002060072009F084FC02202DE02068281A40
:10B7F00067282AD91F498020C8600220FDF7B2F9C6
:10B80000072009F075FC03201EE0CC20FFF74BFF5A
:10B81000042019E016483038C677FDF7A3FC164916
:10B82000164D0863124810384672287C04280AD145
:10B830000021052002F0EAFC062028741048417D12
:10B840006973807DA8730520207170BD0020FFF70B
:10B850008AFFFFF779FFFDF785FC20600720F3E7FB
:10B86000FDF780FC2168401A6728EED90020EBE73D
:10B87000502A00200005005000280020A02B0020A6
:10B88000202500200248007F002800D001207047BA
:10B89000402A002010B50BA0FEF790FB00280CD02A
:10B8A0000CA0FEF78BFB012808D00CA0FEF786FB4E
:10B8B000012802D00BA0FEF781FB10BD06F054FD5D
:10B8C00010BD00006F74615F73746172742E7478C0
:10B8D000740000006170702E62696E0073642E62E5
:10B8E000696E000063792E62696E000010B506492A
:10B8F0000028087707D00548807B5A2803D9002103
:10B90000072002F095FC10BD402A00208024002072
:10B9100010B5A521C9000E48FCF789FC0C4932205E
:10B9200048600C4964200886022080310873072093
:10B9300080310871084A00211174064908228039B3
:10B94000CA770877024805498030016610BD0000BB
:10B95000E82B0020282F002088300020CCCC0000CD
:10B9600000487047E82B00200148C07F7047000066
:10B97000A82E00200349002801D0034800E0034816
:10B980008860704734200020C0390600300B010069
:10B990000C48C17D407D5A2901D25A2811D38842D2
:10B9A00007D9421AD2B20A2A0BD35007400F0818FF
:10B9B00006E00A1AD2B2102A03D35007400F081A21
:10B9C000C0B27047602A002010B50446007890B0DD
:10B9D000002813D040220A496846FCF701FC68465B
:10B9E000FCF730FC69464018224606A102F01AFE18
:10B9F00007F0C6FD826969469047012010B010BD6E
:10BA00000C92020025730D0A00000000F0B5404DB5
:10BA10000C46297A95B0002925D001280DD010A90F
:10BA2000204600F0C1F8002805D010A800F036FA32
:10BA3000002800D0012015B0F0BD2088354988428B
:10BA400041D0354988423ED0402234496846FCF70F
:10BA5000C7FB6846FCF7F6FB69464018228830A110
:10BA600002F0E0FD2AE0324E0127307800282CD089
:10BA700030492046FCF7EDFB00283BD02749402207
:10BA8000C0316846FCF7ACFB6846FCF7DBFB694657
:10BA9000401829A102F0C6FD07F072FD82696946CF
:10BAA0009047402229496846FCF79AFB6846FCF714
:10BAB000C9FB6946401826A102F0B4FD07F060FDFD
:10BAC0008269694690470020B5E714494022403119
:10BAD0006846FCF785FB6846FCF7B4FB69464018EE
:10BAE00024A102F09FFD07F04BFD82696946904753
:10BAF0003770E8E709492F72402280316846FCF729
:10BB00006FFB6846FCF79EFB6946401821A1D3E70E
:10BB10000C3900205B4400005B430000949D020050
:10BB20004374726C436F64653A25780A0D00000017
:10BB3000582100208C93020070617373776F7264D8
:10BB40002077726F6E67210D0A000000949E02003C
:10BB5000506C6561736520696E70757420736865DB
:10BB60006C6C2070617373776F72642061676169B8
:10BB70006E3A0000506C6561736520696E70757473
:10BB8000207368656C6C2070617373776F72643AB0
:10BB90000000000070617373776F726420726967D0
:10BBA0006874210D0A000000F0B500220C4691B027
:10BBB00011461546835C1E46613E1A2E17D3203669
:10BBC0001A2E14D311360A2E11D35F2B11D0DBB2EB
:10BBD000282B10D02571402274496846FCF700FBE1
:10BBE0006846FCF72FFB6946401871A164E0282BDA
:10BBF00001D0521CDEE7002A04D0531EA371521C50
:10BC000013460DE069492571402240316846FCF732
:10BC1000E7FA6846FCF716FB6946401874A14BE04A
:10BC2000865C3746213F5E2F0DD360492571402247
:10BC300080316846FCF7D4FA6846FCF703FB694696
:10BC400040187A4938E02C2E02D0292E20D014E05A
:10BC50009A4204D1554940222571C03123E086180B
:10BC6000203EF67F222E0AD0042904D266183574AD
:10BC70003372531E3373491C531C521CD0E70429E2
:10BC8000F9D20127661837745B1C3372931EF1E7F3
:10BC9000A679B61C964201D1E57125E09A4215D1EC
:10BCA0006349257140226846FCF79AFA6846FCF71A
:10BCB000C9FA694640185FA102F0B4FC07F060FCC5
:10BCC000826969469047002011B0F0BD8618203E79
:10BCD000F67F222E53D0042904D2661835743372AD
:10BCE000521E3273491CE171206065712946A279A8
:10BCF00000F097FC5FA1FCF7ACFA002848D0A279CD
:10BD00006179206800F08DFC5BA1FCF7A2FA0028A5
:10BD100040D0A2796179206800F083FC57A1FCF73C
:10BD200098FA002838D0A2796179206800F079FC6F
:10BD300053A1FCF78EFA002830D0A27961792068EF
:10BD400000F06FFC4FA1FCF784FA002828D0A279FC
:10BD50006179206800F065FC4CA1FCF77AFA0028B4
:10BD600020D0A2796179206800F05BFC49A1FCF742
:10BD700070FA002818D0042020710120A4E70429BB
:10BD8000B0D2012766185B1C37743372921EA8E785
:10BD90000120F1E70320EFE70520EDE70620EBE7C0
:10BDA0000720E9E70820E7E70220E5E754940200CE
:10BDB0004C65786963616C20416E616C797369735D
:10BDC000204572726F723A2046756E6374696F6EA9
:10BDD000206F722043616C6C206E616D6520697309
:10BDE00020696C6C6567616C2121210D0A000000DF
:10BDF0004C65786963616C20416E616C797369731D
:10BE0000204572726F723A2046756E6374696F6E68
:10BE1000206F722043616C6C206E616D65206973C8
:10BE200020656D7074792121210D0A005CDD02000E
:10BE3000549502004C65786963616C20416E616CB9
:10BE400079736973204572726F723A207061726102
:10BE50006D6574657220696E636C75646520696CCC
:10BE60006C6567616C20636F6D6D612121210D0A26
:10BE7000000000006C6600006C76000067657400CE
:10BE80007365740072656164000000007772697404
:10BE90006500000068656C7000000000F0B50446A5
:10BEA00000799DB00125FA4E030002F0E6FB09F689
:10BEB000F5F4F30683B7F2F1F600A2796179206810
:10BEC00000F0AFFBF34F019006E038680199FCF7F2
:10BED000C0F900280ED01037B742F6D34022EE4901
:10BEE0000CA8FCF77DF90CA8FCF7ACF90CA94018DC
:10BEF000EA4910E0002FF1D0E079042814D9E6498E
:10BF0000402240310CA8FCF76BF90CA8FCF79AF919
:10BF10000CA94018E24902F085FB07F031FB826969
:10BF20000CA990470025B6E200262BE0A019017C61
:10BF3000027B0129017A20681DD000F072FBB2005B
:10BF400003A9511800F010FB002819D0D249402253
:10BF500080310CA8FCF744F90CA8FCF773F90CA984
:10BF60004018D0A102F05EFB07F00AFB82690CA921
:10BF70009047002509E000F054FBB20003A9885067
:10BF8000761CF6B2E079B042D0D803AC0FCCBC68D6
:10BF9000A047C14904464022C0310CA8FCF720F953
:10BFA0000CA8FCF74FF90CA940182246CDA102F0CD
:10BFB00039FBC6E0227B217A206800F032FB00F0DA
:10BFC000BDFA060005D0E079012806D04022C84914
:10BFD000C3E0C7494022403933E0C6A1F068FCF70E
:10BFE00038F900280ED0C5A1F068FCF732F9002816
:10BFF0000CD0C5A1F068FCF72CF900280AD040222B
:10C00000C4495FE0BA49402240316BE0B849402260
:10C01000803178E0BF494022403985E0227B217A97
:10C02000206800F0FEFA00F089FA060006D0E079F8
:10C03000022810D0B74940228031BFE0B5494022E4
:10C0400040310CA8FCF7CCF80CA8FCF7FBF80CA9C5
:10C050004018B1495FE7607C01280CD0627B617AAF
:10C06000206800F0DEFA694600F07EFA002815D05C
:10C070004022AA49E6E0A949402240390CA8FCF731
:10C08000AFF80CA8FCF7DEF80CA94018A44942E769
:10C090008EE05CE0D5E1B4E1F2E0FFE195A1F0686B
:10C0A000FCF7D7F8002817D09EA1F068FCF7D1F86C
:10C0B000002822D09CA1F068FCF7CBF800282DD0F6
:10C0C0009A4940220CA8FCF78BF80CA8FCF7BAF8A8
:10C0D0000CA9401896A11EE7B168009808708F4916
:10C0E000402240310CA8FCF77BF80CA8FCF7AAF81A
:10C0F0000CA94018B1680B7820E0B168009808805E
:10C100008649402280310CA8FCF76AF80CA8FCF79D
:10C1100099F80CA94018B1680B880FE0B168009835
:10C1200008608249402240390CA8FCF759F80CA855
:10C13000FCF788F80CA94018B1680B6888A1326830
:10C140009BE007F01DFA82690CA99047A3E1E07912
:10C1500001280CD07549402240310CA8FCF740F86A
:10C160000CA8FCF76FF80CA940187F49D3E6207C97
:10C1700001280DD0227B217A206800F052FA0BA909
:10C1800000F0F2F9002810D068494022C03159E08F
:10C190006649402280310CA8FCF722F80CA8FCF775
:10C1A00051F80CA940187149B5E64022704959E090
:10C1B000E07902280CD06E49402240310CA8FCF7EF
:10C1C0000FF80CA8FCF73EF80CA9401869A1A2E6EC
:10C1D000207C01280FD0607C012819D0227B217A95
:10C1E000206800F01EFA0BA900F0BEF900281CD050
:10C1F0004022704926E05E49402280310CA8FBF7BE
:10C20000EFFF0CA8FCF71EF80CA940186A4982E65B
:10C210006849402240390CA8FBF7E2FF0CA8FCF764
:10C2200011F80CA94018654975E6627B617A2068AF
:10C2300000F0F7F9694600F097F900280CD05D4945
:10C24000402240310CA8FBF7CBFF0CA8FBF7FAFF0C
:10C250000CA9401813A15EE60B9900980860554997
:10C26000402280310CA8FBF7BBFF0CA8FBF7EAFFCC
:10C270000CA90B9A401852A1136802F0D3F960E799
:10C28000E079002803D04B494022C031DFE09FE035
:10C2900068A3020038A302009495020070DE020039
:10C2A000E4DD0200506172736520416E616C797348
:10C2B0006973204572726F723A2074686520696EE6
:10C2C000707574206E756D62657220737472696E1C
:10C2D0006720697320696C6C6567616C2121210D91
:10C2E0000A00000072657475726E2025640D0A00E4
:10C2F000D496020075696E74385F740075696E7447
:10C3000031365F740000000075696E7433325F74FB
:10C3100000000000D49702002CDE0200D498020036
:10C3200024DC02007531360075333200D4990200E6
:10C33000746865206465736372696265206F662046
:10C340007661726961626C6527732074797065200B
:10C35000697320696C6C6567616C2121210D0A008D
:10C3600025733D25640D0A00A0DD0200C4DC020037
:10C37000D49A0200506172736520416E616C7973CA
:10C380006973204572726F723A2074686973206312
:10C39000616C6C206D7573742068617665207477AC
:10C3A0006F20706172616D657465722121210D0AC3
:10C3B00000000000D49B02000CDD020074DC0200CF
:10C3C0002A2830782578293D307825780D0A000014
:10C3D000394C13E0402239490CA8FBF701FF0CA8A7
:10C3E000FBF730FF0CA9401835A1626802F01AF97A
:10C3F00007F0C6F882690CA990471034B442E9D31B
:10C4000049E0E079002802D040222F491FE02A4C61
:10C4100014E02A49402240310CA8FBF7E1FE0CA8A9
:10C42000FBF710FF0CA9401825A1626802F0FAF88A
:10C4300007F0A6F882690CA990471034B442E8D3FB
:10C4400029E0E07900280CD01F49402240310CA897
:10C45000FBF7C6FE0CA8FBF7F5FE0CA940181BA1C4
:10C4600059E5294C294E14E01449402280310CA88A
:10C47000FBF7B6FE0CA8FBF7E5FE0CA9401810A1CF
:10C48000626802F0CFF807F07BF882690CA9904748
:10C490001034B442E8D328461DB0F0BD0A4940220A
:10C4A00080310CA8FBF79CFE0CA8FBF7CBFE0CA977
:10C4B000401817A12FE5000038A302009493020052
:10C4C00025730D0A00000000D49C020050617273B5
:10C4D0006520416E616C79736973204572726F7269
:10C4E0003A20746869732063616C6C206D75737495
:10C4F0002068617665206E6F20706172616D657471
:10C5000065722121210D0A0068A3020098A3020090
:10C51000506172736520416E616C79736973204557
:10C5200072726F723A2063616E277420676574209F
:10C53000686572652121210D0A00000070B506466C
:10C54000074C084D06E031462068FBF782FE0028C4
:10C5500004D01034AC42F6D3002070BD204670BD2C
:10C5600068A3020098A30200F0B500220A24054641
:10C570000A602B781E46413E052E05D9582B03D064
:10C58000002B04D06D1CF4E720332B70FAE7034630
:10C590001D782E46303E092E0CD9313E052E09D984
:10C5A000782D04D02B061B0E0AD00120F0BD012AE5
:10C5B00002D0FAE7612D00D31024521C5B1CE7E780
:10C5C000102C02D0002A0FD012E0032A01D2022040
:10C5D000F0BD0378302B02D14378782B01D00320B3
:10C5E000F0BD801C921E01E00420F0BD002A00D0A6
:10C5F000521E03781D46303D092D01D82B4600E020
:10C60000573B1546012600E066436D1EFCD25E4393
:10C610000B68F3180B604378401C002BE6D1002018
:10C62000F0BD0023821853704018704730B504469F
:10C63000A1B00320402269468003FDF7EFFC0D49BD
:10C64000FF22CB7B6D462046002B0ED0834200D8C4
:10C65000002044002B5D64196478182B05D23C2C13
:10C6600003D24B738C7321B030BD4A738A730020A0
:10C67000F9E70000A02B0020F0B5A1B06E46FEF750
:10C680001FFA0025204C002808D020481F4FC079F1
:10C69000603F002807D0387D042804D9A572257290
:10C6A000657221B0F0BDE07B00281ED0032040223F
:10C6B00069468003FDF7B2FCB97D00208E46797D86
:10C6C000E37B8C460FE031787278B61C18290CD2C7
:10C6D0003C2A0AD28C4502D1964510D301E08C4504
:10C6E0000DD3401CC0B28342EDD8A572257265728D
:10C6F000E07B0028D5D00020FFF798FFD1E701208C
:10C70000A07221726272F3E7A02B00208025002026
:10C71000F0B50327A1B00446BF036E463846FDF7C7
:10C7200068FD20780D4D4008E873202802D92020AC
:10C73000E87301E0002802D00020FFF777FF4022D5
:10C74000611C3046FBF74CFD402231463846FDF770
:10C75000CBFC0620287421B0F0BD0000A02B0020E7
:10C76000F8B5FCF7FFFC2C4C0546207C002801D0D6
:10C7700000F022FD217C284E00270120203E0B00E6
:10C7800001F07BFF0705151B293914461400A17A17
:10C7900000290BD02149237A4A7D9A4206D3897D0C
:10C7A000627A914202D32074E7722773F8BD0120A8
:10C7B0007562FDF7A3FF02201BE0706AC830A84233
:10C7C000F4D20020FDF79AFF032020747562E07A0E
:10C7D000401CE072F8BD716AFF319131A942F9D273
:10C7E000E17A032905D304202074207B401C2073A8
:10C7F000F8BD2074F8BD0A4A716A8918A942F9D2B5
:10C80000217B022901D30620F3E72074E772F8BDEB
:10C81000FFF732FF2774F8BDA02B00202025002051
:10C820003075000010B50C4605F05AFE024801684C
:10C830004C600121817210BDB0230020F8B5154C69
:10C840000E460746E088012189021546884202D338
:10C850000020C043F8BD05F043FE216800200860B9
:10C86000216848602168C87321688D8121684E81E4
:10C870002168887721682020887321687F20C87705
:10C880000120A072206839464089FDF7F5FC06209A
:10C89000205EF8BDB023002010B50D4CE188814228
:10C8A00015D305F01DFE20688089002801D0FCF713
:10C8B00049FF20684089FCF745FF2068C17F7F2938
:10C8C00005D13F21C1770120A07200F083F810BD8F
:10C8D000B023002010B50C4605F002FE0649096899
:10C8E000C87F7F2801D0002010BD20222046FBF702
:10C8F00077FC012010BD0000B023002010B50C46CD
:10C9000005F0EEFD0348214600684089FDF79AFCDA
:10C91000012010BDB023002010B505F0E1FD024854
:10C920000068C07B10BD0000B023002070B500205F
:10C930000A4C0126E0800546B602284605F0D0FDE7
:10C940002068C07FFF2806D0E0886D1C401CADB277
:10C95000E080B542F1D3E08870BD0000B023002034
:10C960000148C08870470000B023002070B514460D
:10C970000D4605F0B5FD04480168898929800068E5
:10C980004068206070BD0000B023002010B50C4648
:10C9900005F0A6FD024801680C810121817210BDDD
:10C9A000B023002010B50C4605F09AFD024801683E
:10C9B0000C600121817210BDB023002010B50C461F
:10C9C00005F08EFD02480168CC730121817210BD13
:10C9D000B023002010B5064CA07A002807D020898B
:10C9E000214680088039FDF7C9FB0020A07210BDE8
:10C9F000B023002010B507490020FDF75BFB054977
:10CA00000846803001600021818001818172FFF73A
:10CA10008DFF10BD3023002010B5064900200860AE
:10CA200048608860C860034940390860486009F080
:10CA300069FE10BD4011014010B5064A01210648AB
:10CA400006F0FCF9002803D004A21D2106F0B5F978
:10CA5000002010BDCDCC0100402000202E2E5C73A4
:10CA60006F757263655C5254432E630010B50248C3
:10CA700000F004F8002010BD8F0200007CB50546D0
:10CA800000201F4C00900190206CA84203D1FCF7BD
:10CA900069FB60647CBDFCF765FB2564FCF762FB09
:10CAA0006064684606F0C2F901AAA16A009806F01F
:10CAB000B7F9E06B0199A26B4018218D114E490422
:10CAC000490C4118C80B1218C003081AA263E0638E
:10CAD000306806F075FA00222946306806F02EFA12
:10CAE000002803D008A25A2106F067F9E06B203035
:10CAF000E0630348283006F099F9FCF733FB7CBD6E
:10CB000000250020402000202E2E5C736F7572637C
:10CB1000655C5254432E63000A4B10B5084A5943D2
:10CB2000526A074B521A20330C215956E1239B00BD
:10CB3000594309B252180146104600F047F810BD9B
:10CB400000250020805101000A4B10B5084A5943C6
:10CB5000526A074B521820330C215956E1239B008F
:10CB6000594309B252180146104600F02FF810BD83
:10CB7000002500208051010030B509493C254A6A52
:10CB800020318C7DCB7D6C43E318497DE124240169
:10CB90006143C918034B58434018101A30BD0000B8
:10CBA000002500208051010010B507490C224B6A76
:10CBB00020318A56E12189004A439A1801461046DD
:10CBC00000F004F810BD000000250020F8B50C4668
:10CBD00006462E49FBF7DAFA05462C48E121684360
:10CBE000371A2B4820800126A670E67009013846C6
:10CBF000FBF7CCFAC0B2E121607109014843381A51
:10CC00003C21FBF7C3FAA0713C213846FBF7BEFA82
:10CC1000E1710721E81CFBF7B9FA2171FF2300211C
:10CC20006F335F1E228890071DD03846854206D399
:10CC3000521C491C2D1AC9B22280C829F2D320786F
:10CC4000800712D0134900200A5CAA4208D8A278B3
:10CC5000521CA2700A5C401CAD1AC0B20C28F3D35F
:10CC60007019E070F8BD1846E0E70A4900200C3959
:10CC70000A5CAA42F4D8A278521CA2700A5C401C3A
:10CC8000AD1AC0B20C28F3D3EAE7000080510100CE
:10CC9000B2070000CE71020010B5FCF763FA0A4932
:10CCA0007D22496C12018918814208D206488038D9
:10CCB0008079002804D001200004FFF7DFFE10BDBA
:10CCC00001204004F9E7000000250020FEB501A87E
:10CCD00006F0ACF82D4D6A46A96A019806F0A0F856
:10CCE00000980126C40BE0030090A96A2F4608189B
:10CCF0000002000AA862264840370673388A0019E5
:10CD00003882E0B2FBF7EEFFE0B2FBF73FFFA86B23
:10CD10000019A863686A00196862387D802801D20A
:10CD200000193875F88AFF212D31884201D2001987
:10CD3000F88216483030FFF737FF14482030817DE5
:10CD4000827B914210D006708173014660314A782F
:10CD5000002A09D0427DCB789A4205D30B799A42BA
:10CD600002D28A78521E8A70C17C427B914204D0E2
:10CD700086704173074A06211174C27B417D8A4245
:10CD800003D00C2900D14670C173FEBD00250020E0
:10CD9000602A0020A02B002010B50A20FBF7E2FE3D
:10CDA000FEF73AF9FEF782F90249487300F03AF8C3
:10CDB00010BD0000A024002010B588B0044604A8CF
:10CDC00003F0B0FC04A80FC803936B4607C323000D
:10CDD00001F053FC0E261316262626191C261F0DBD
:10CDE0000810222669460420085E08B010BD684677
:10CDF000407BFAE76846807BF7E76846007AF4E70D
:10CE00006846407AF1E76846C07AEEE76846807A7D
:10CE1000EBE76846007BE8E769460620085EE4E742
:10CE20000020E2E710B50C4CFCF79CF901212060D2
:10CE300021710020E08020816081A0812061A073A9
:10CE400020756075A075E175A076E0762076617634
:10CE50002077607710BD0000842B0020F8B57A4C55
:10CE60000026FCF77FF97949496B471A022003F045
:10CE70000FFE0125002804D1032003F009FE00283D
:10CE80000CD072482030007E002807D070488742BE
:10CE900004D9182161561E2900DDA57620790027C6
:10CEA000022801D0032804D1E17D02290DD00329F5
:10CEB0000BD0012802D1E07D012806D067752079CA
:10CEC000022806D0032804D009E0607D401C60756C
:10CED000F5E71522A256142A01DBA57506E0012804
:10CEE00004D1152161560A2900DBA7752179E17566
:10CEF00000F0F6FB002802D02776657602E0207E5F
:10CF0000401C2076A07D002824D0207F4006000E03
:10CF10002077617F012902D1284320776777207F1E
:10CF2000C306DB0E8446002108462A4682401A4288
:10CF300001D0491CC9B2401CC0B20528F5D3032951
:10CF400000D3A7756046800704D0182161560029D8
:10CF500000DDA77518216156052913DD012003F0B6
:10CF600097FD00280DD1182161561E290ADD0220E7
:10CF700003F08EFD002804D1032003F089FD002872
:10CF800000D06776012003F083FD00280CD0E07EFE
:10CF9000002805D0012801D0022803D0032615E07F
:10CFA000052613E0012611E0022003F071FD0028A0
:10CFB00004D1032003F06CFD002807D0E07E002898
:10CFC0000DD0012801D002280BD00A26E07E0028CF
:10CFD00009D0012801D0022807D05A2006E00C26EB
:10CFE000F4E70826F2E7642000E050200E216156A5
:10CFF0001F2901DA491CA1730C22A25E82420ADBBE
:10D00000032003F045FD002804D1022003F040FD79
:10D01000002800D0A5760C21615EB14201DB012021
:10D0200000E0002005F004FCA7812775216900209D
:10D030002A468240114202D1227D521C2275401C98
:10D04000C0B21028F4D3F8BD842B00208024002027
:10D0500040771B0010B50848816801290AD10749AB
:10D060004968490706D500218160084608F060FE3E
:10D0700009F0A2F810BD000000310040003300406C
:10D0800010B50021014807F0B7FF10BD0040004077
:10D09000FEB50020C043124D0290686901906846B9
:10D0A0002E6907F0BDF9074607F092FC0446002FF1
:10D0B00008D002AA0199009807F0DAF9029807F05F
:10D0C000D1FC06E0029807F0CDFC002801D1002C2D
:10D0D00002D0304606F044FC00206871FEBD00001E
:10D0E00094200020044901220878504008704968C3
:10D0F000002900D0084770477C20002010B5084860
:10D100004068002808D08047002804D0FF21054A45
:10D110002A3105F052FE10BD07F0BEFB10BD000025
:10D12000DC2000209CA202007CB50020009001A819
:10D1300005F07CFE0F4C6A46A16A019805F070FE6E
:10D14000E06B0099461800967D21A06BC90048430A
:10D15000FBF7D4F905460C463046FBF7CFF9064AF3
:10D16000064BFBF753F92A462346FBF79DF8FBF7DE
:10D17000D3F97CBD00250020FCA9F1D24D624040CE
:10D1800008B50020064B07220621009005F07CFE22
:10D19000002803D003A2472105F00FFE08BD0000C0
:10D1A000243100202E2E5C736F757263655C737979
:10D1B00073636C6B2E63000010B50248FFF75EFCD2
:10D1C00010BD00008F02000001480021017070476F
:10D1D00045200020014900200870704745200020AC
:10D1E00010B5034A0121117028DF03F049F810BD82
:10D1F0004520002010B5034C0223237029DF03F0E3
:10D200003FF810BD4520002000B50023FCF768FA68
:10D2100000BD0000F0B591B02A4F002501266C46F4
:10D22000360304222146A819FCF7F8FE2078FF28CF
:10D2300002D04035B542F4D3B54203D33046FCF7B3
:10D24000D8FF002540212046FAF7F1FF78680090CA
:10D25000201D01F0F7F81B492046A0394A7D2030F7
:10D2600002730A7D42738A7D82730A7EC273CA7D0D
:10D2700002743A7B4274CA798274134AD27BC274B4
:10D28000124A527B82758A7B0276002A01D10122E2
:10D2900002760C4A2032937E4376D27E82760C4A06
:10D2A000127BC2760022027742778A88120A82773E
:10D2B0000979C17740222146A819FCF715FF012002
:10D2C00011B0F0BD20250020A02B0020C027002099
:10D2D000402A002010B5044C0220FBF7B7FDE08A7D
:10D2E00001210843E08210BDD027002010B5FCF7D3
:10D2F00088FFFCF73DFBFCF785FE024900208867AC
:10D3000010BD00008024002010B585B0044668469A
:10D3100000F038F86846007C20706846407C6070F9
:10D320006846807CA0706846C07CE07005B010BD87
:10D3300010B586B00446684600F024F80FA12046D8
:10D3400001F070F96946C0B2097C2154401C69465D
:10D35000C0B2497C2154401C6946C0B2897C21542A
:10D36000401C6946C0B2C97C2154401CC0B2002197
:10D370002154401CC0B206B010BD00004342414ED3
:10D38000442000003CB514490A6A0092496A0191A0
:10D390004821017049214170432181704221C170AF
:10D3A0006A460021535C1B09092B01D9372400E090
:10D3B0003024E3184C0024182371535C1B071B0F07
:10D3C000092B01D9372500E03025EB18491C89B21B
:10D3D00063710829E6D33CBD40000010054A0146B0
:10D3E000D37B0020002B03D08B4200D1012070475B
:10D3F000D173FBE78024002000B587B0FFF736FB30
:10D4000018216846FAF713FF6846FFF7BBFFFDF7E0
:10D4100049FBFCF73BFA002814D0FDF751FB00282C
:10D4200022D00020FDF7A8F9FCF7ECFD00F022FF68
:10D4300001F092FEFEF72EFA01F0A2F8FBF742FC93
:10D4400007B000BDFDF73CFB002804D00020FCF72E
:10D45000D8FE002003E00120FCF7D3FE0120FDF7F9
:10D460008BF9FCF785FADFE70120FCF7D5FE0120F8
:10D47000D8E7000010B5084CFBF714FD002807D0D2
:10D480000120FBF7E3FCE08A80210843E08210BD25
:10D4900000F00EF810BD0000D02700200349CA7B21
:10D4A000824201D10020C873704700008024002010
:10D4B00010B5FDF705FB002801D0FFF7ABFE35DF07
:10D4C00010BD000010B507F037FA002805D00E494E
:10D4D0000C484860C8130D4988610D48018CC9B2D9
:10D4E00001290ED1818C09070BD1018D0906090F85
:10D4F000042906D1808D0006000F02D105490120C4
:10D50000886010BDDFFF07C000050040006C0040D0
:10D51000C00F00F00006004006490548896B016015
:10D52000002101728180C180FF2137310182704763
:10D53000702B002000250020F0B5CBB0334CFBF75A
:10D5400011FE0646207A002817D0314D012817D049
:10D55000012702281ED003280DD100F0C1F80028B1
:10D5600009D0A86B2168451A03F09CFA002847D01F
:10D57000022D00D927724BB0F0BD03202072FAE7CC
:10D58000FDF750F8A86B206002202072E660FDF7DE
:10D5900037F8F0E7E0680F30B042ECD2402007F0F7
:10D5A0002DFC1A4D303DA886042007F027FCE886A4
:10D5B00003202072FDF730F8FF22A7742D321549A1
:10D5C0006846FAF70DFEE088A2881349801A48439E
:10D5D000002101E0801A491C0028FBDC0F4A0020D2
:10D5E000FF256B462C35914207DA1E5C401CB700C4
:10D5F000F619921B00B2A842F5DBC8302082BAE7C8
:10D600004B20C0008542B5D8B5E70000702B002044
:10D610000025002054A10200A086010068F001004E
:10D62000F8B51D4DFBF79EFD07461C4928684118BB
:10D63000B94205D229790020002900D028716871EB
:10D6400017480069C00AC007C00F24D109F0C0FB09
:10D65000012820D000F06AFB0446FF281BD0A0065A
:10D66000460F6007400F0090700701D5012100E0D0
:10D670000021284604F06EFE60060CD5F00703D0AA
:10D680002846009904F048FFB00704D53A462846DA
:10D69000009902F0B5FDF8BDC4270020DC050000AC
:10D6A00000050050084800214279002A04D0017189
:10D6B00041718171062070478279002A02D0817100
:10D6C000C079704700207047C42700200148407B84
:10D6D00070470000C027002010B500F0DFFA10BD31
:10D6E00010B5FBF7A3FA002801D0002010BD0148B7
:10D6F000407B10BDC02700200148807A70470000A1
:10D70000C02700207047000070B5FDF7D9F9002848
:10D7100016D00C4C00252078002802D003F078FBAE
:10D720002570A078002802D003F0FCFAA57060787C
:10D73000002805D003486570A0384566FFF772FBE6
:10D7400070BD00002025002010B5FDF739FC094C04
:10D7500001202076FBF706FD214620394863002092
:10D76000A07600F099FB002802D00320FFF7CAFF43
:10D7700010BD0000A024002070B50546FBF7F2FCA8
:10D780001B490446002D08D1087E00282ED0887E33
:10D79000401CC0B28876022828D300200876FFF704
:10D7A000B1FFFBF743FA002807D0FDF7A3FE0028DE
:10D7B00003D10021042000F03BFDFBF77DFB002896
:10D7C00002D00020FBF744FBFDF72AFCFEF7A0F88F
:10D7D000074D0849203D686B4018A04202D2002046
:10D7E000FEF7C8F8044901206C63487070BD000062
:10D7F000A0240020E0930400E02B0020F7B50146B0
:10D800002A48002692B01446002925D06846FFF722
:10D8100083F902AF00254022D00139462818FCF7D1
:10D82000FDFB3878FF2834D002996A460298090433
:10D830009278090EC0B28A4226D16946C9788142DF
:10D8400022D113980126042825D006282CD0072899
:10D8500026D0092821D125E01399042906D00629CC
:10D860000FD0072906D0092907D108E04168806850
:10D87000081801E0006905E0106001260DE0806AEB
:10D88000FAE7C0680009F7E7012000034035854248
:10D89000C1D3002000E004982060304615B0F0BDF0
:10D8A0000698F9E70398F7E70598F5E7BC24002008
:10D8B000F0B5044687B00020FFF75EF96946049191
:10D8C0002249002640180590E681268266826F462E
:10D8D000012526731022900239463018FCF79EFB72
:10D8E0003878FF2810D0009810364000400800908B
:10D8F0000599884224D90498007B022806D0032881
:10D900000CD0042810D019E0103619E0E0893C3022
:10D91000E081032D0FD0042D0DD00FE0208A3C3084
:10D920002082042D07D004E0608A3C306082032D01
:10D9300001D0022D02D1207B401C20730498057B6E
:10D940000120C0038642C5D307B0F0BD4057FFFF9A
:10D95000F0B504468DB00020FFF70EF900260C96B6
:10D960000896079600960B90266066602681668171
:10D9700002ADE6822F4626751022900239463018F5
:10D98000FCF74CFB3878FF2818D002980B99400020
:10D9900040081036029088422AD9287A697A4018BD
:10D9A000216809182160EA7A616889186160002895
:10D9B0000BD02089A97A401820810AE00C98002811
:10D9C00001D101200C90103612E06089A97A40182C
:10D9D0006081A87B00280BD00098401C0090697BD8
:10D9E0000798081807900421695E0898081808909D
:10D9F0000120C0038642BFD30098002809D0014609
:10DA00000798FAF7C3FB207500990898FAF7BEFB50
:10DA100001E000202075E0820DB0F0BDF0B50446B5
:10DA200087B00020FFF7A8F800250595049506901B
:10DA30006560A56025616E46E56037462560102269
:10DA4000900239462818FCF7E9FA3878FF281FD0E9
:10DA5000009806994000400810350090884222D96D
:10DA6000317A606840186060717AA0684018A060E0
:10DA7000F17AE0684018E060B17A206940182061CE
:10DA8000307B02280CD003280AD0042808D00AE0F2
:10DA90000498002802D1012005950490103502E079
:10DAA00020683C3020600120C0038542C7D3E06875
:10DAB0000001E060206900012061059807B0F0BD19
:10DAC000F0B585B00020FFF757F869460491174973
:10DAD00000254A7D2C466E460C2A01D3144A01E0EB
